:020000040800F2
:10000000001C0024651F000821570008511F00082C
:10001000511F0008511F0008511F00080000000078
:10002000000000000000000000000000292000087F
:10003000511F000800000000C51F0008E93100083A
:10004000B1210008B1210008B1210008B121000848
:10005000B1210008B1210008B1210008B121000838
:10006000B1210008B1210008B1210008B121000828
:10007000B1210008B1210008B1210008B121000818
:1002AC0053B94AB9002908BF00281CBF4FF0FF31D1
:1002BC004FF0FF3000F00CB8ADF1080C6DE904CE36
:1002CC0000F010F8DDF804E0DDE9022304B070471B
:1002DC00704700BF034613F8012B002AFBD1181AF4
:1002EC00013870472DE9F04786468C460846089E33
:1002FC00154674461946002B40F0C2808542B2FA6E
:10030C0082F245D94AB1C2F1200300FA02FC2EFA5E
:10031C0003F3954043EA0C0C94404FEA154EA8B2F7
:10032C00BCFBFEF8230C0EFB18CC08FB00F943EACF
:10033C000C43994528D9EB1808F1FF3704D299459D
:10034C0002D9A8F102072B44A3EB0903A4B2B3FB17
:10035C00FEFC0EFB1C330CFB00F044EA0344A042F1
:10036C0014D92C190CF1FF3304D2A04202D9ACF1F0
:10037C0002032C44241A43EA07401EB1D440002344
:10038C0034607360BDE8F0874746DDE76346F1E70C
:10039C0092BB431B01214FEA154EAFB2B3FBFEFCDF
:1003AC00200C0EFB1C330CFB07F840EA034398456A
:1003BC0062D9EB180CF1FF3004D2984502D9ACF19C
:1003CC0002002B44A3EB0803A4B2B3FBFEFC0EFB10
:1003DC001C330CFB07F744EA0344A7424ED92C19F3
:1003EC000CF1FF3304D2A74202D9ACF102032C4426
:1003FC00E41B43EA0040C0E7C2F1200320FA03F1FA
:10040C00954090402EFA03F303434FEA154EAFB2DA
:10041C00B1FBFEFC0EFB1C10190C0CFB07F841EA9F
:10042C000041884504FA02F422D969180CF1FF3016
:10043C0004D2884502D9ACF102002944A1EB080191
:10044C009BB2B1FBFEFC0EFB1C110CFB07F743EA45
:10045C0001439F420ED9EB180CF1FF3104D29F429D
:10046C0002D9ACF102012B44DB1B41EA004192E7BB
:10047C006046E3E76146F7E76046A3E76346B7E704
:10048C00834206D916B9002108467BE7C6E900E08D
:10049C00F9E7B3FA83F78FB9834201D3724508D8D1
:1004AC00BEEB020460EB030301209C461EB9002145
:1004BC0068E73846FAE7C6E9004CF8E7C7F1200CC4
:1004CC00BB4022FA0CF41C432EFA0CF120FA0CF36C
:1004DC00B84001434FEA14490EFA07F5B3FBF9F89B
:1004EC001FFA84FE09FB18300B0C08FB0EFA43EACA
:1004FC0000439A4502FA07F240D9E31808F1FF309D
:10050C0004D29A4502D9A8F102002344A3EB0A03B2
:10051C0089B2B3FBF9F809FB183308FB0EFE41EA6C
:10052C0003418E452CD9611808F1FF3304D28E4556
:10053C0002D9A8F10203214443EA0040A0FB02982F
:10054C00A1EB0E014145CE46434602D306D14D45A3
:10055C0004D2B9EB020E68EB04030138002EA6D0CE
:10056C00B5EB0E0261EB030101FA0CFC22FA07F366
:10057C004CEA0303F940C6E9003198E74046C5E769
:10058C004346D9E7014803F0BFBA00BF000000247E
:10059C0010B5044C01210448226804F0F3FB2060E0
:1005AC0010BD00BFD8080024AC6C000807B5164875
:1005BC0004F0C4FC154805F0C6FC30B9144804F02E
:1005CC00BDFC002003B05DF804FB124805F0BBFC39
:1005DC0008B91148F3E7114804F0A5FB08B110481D
:1005EC00EDE7104804F09FFB08B10F48E7E70F4810
:1005FC0004F0A4FC012200230D48CDE900230222C3
:10060C00002304F0B3F8DCE7CC6F00086066000848
:10061C00EF6F00084066000810700008AC6C000812
:10062C0032700008B46C00085B700008857000081C
:10063C00E00000242DE9F04F91B0840705460E46EA
:10064C00009302F00403DDF868800293C2F3C20346
:10065C00039203F10103059340F0BA81041D30B1FC
:10066C00072909D86FF01B0011B0BDE8F08F01F01D
:10067C0007063444C6F10806009B4FF000094FF002
:10068C00040A591E4FF0FF334F46CB460193534695
:10069C00CDF810900DB1009A22600598002800F357
:1006AC00E8809848009A824203D397488242C0F06F
:1006BC00E080039AA4EB050E92074FEA9E0000F12E
:1006CC0003810F2F00F2B180002D00F0058107F19E
:1006DC0040020DEB020C019A0CF8200C0CF8102CBB
:1006EC00049801300490E7E07A285DD84B280ED8A6
:1006FC00472859D829282DD8252852D054D8202815
:10070C007AD02338D0F1000B4BEB000B74E04C3853
:10071C002E2849D8DFE800F0704848484848484837
:10072C00484848484B484848484848484859484B26
:10073C004B595959704B6D487048184B18484882A2
:10074C007F4B48484B487F0000204FF0000B4FF088
:10075C00040A38E02A380122C0B202FA00F010EA8A
:10076C000E0F49D110F0625C2FD110EA020B43D06E
:10077C006046013C5444B4FBFAF40AFB04F4002D2B
:10078C0061D0A3EB050CA444B4453FF66BAF002835
:10079C0068D1042B47D158F8043B2360043404235C
:1007AC002AE0019A013A01924FF0000B24E011F873
:1007BC00010C6C2834D111F8023C00206C2B8346C0
:1007CC00C5D14FF0080A5346D3E708F107080734A0
:1007DC0028F0070824F00704F8E802AB35B10698B6
:1007EC002044B0423FF63EAFC4E900AB08344FF0B2
:1007FC00000B4FF0080A534611F8010F002878D06F
:10080C00BBF1000F7FF470AF2528F5D1019B4FF0A1
:10081C00010B013301934FF0040AECE7584694E7BF
:10082C0000208346A5E7082B02D06FF015001BE7CC
:10083C0008F1070828F00708F8E80223C4E90023A8
:10084C0008340823D8E768B9042B02D108F104084E
:10085C00A4E7082BE9D108F1070828F0070808F1EC
:10086C000808EDE7059A013A059258F8042B009216
:10087C0010E7039A900720D5A4EB050E4FF0010C5E
:10088C004FEA9E00BEF5007FCFD20F2FCDD8F5B129
:10089C0007F14002C0B20DEB020E019A0EF8200CCB
:1008AC000EF8102CBCF1000F3FF41AAF60F07F0073
:1008BC0009F101090EF8200C0137C5F108020434C6
:1008CC004FF6DA7E069297E74FF0000CDAE7BCF1B0
:1008DC00000F01D00136EFE7029802360028EBD169
:1008EC000098CDE90631FFF7F5FC0644DDE9063149
:1008FC00E2E7631BB3F5806F97D23DB9A6F108040C
:10090C00E018B1E620640008B87A00089B08029A47
:10091C0028602B709DF81030C2B1EB7085F80290F6
:10092C00B9F1000F05D008A80022C5F1010C9742BF
:10093C000ED1C5F101030DF120084FF0000A0DF1A5
:10094C00300B0193574512D1601B8DE66B70E5E7B8
:10095C0010F8013B190608D50CEB040E03F07F03CD
:10096C00B6453FF67FAE04F8013B0132DFE7B9F143
:10097C00000F03D098F90020002A17DB029BD3B19B
:10098C001AF80B2004F8012B0022019B18191044B3
:10099C00B0423FF667AE98F80000009904F8010BDE
:1009AC002046039205F09AFC039A14440AF1010ABA
:1009BC0008F10108C6E798F8002055F8223000939A
:1009CC00029B009845F82230FFF784FC421CDCE7C0
:1009DC006FF00D0048E600BF2DE9F04F97B00446CC
:1009EC00894600AF90F802A0D7F880B03B62CBF3F9
:1009FC00C003FA62BB6141B9457800780AEB80000C
:100A0C0020444D4517D8A0EB0409E378FB61BAF1FB
:100A1C00000F02D01BF0010F16D1FB6953BBFB6A10
:100A2C001BB13A6A4946204698474D4628465C37E2
:100A3C00BD46BDE8F08F461C09F101093046FFF7B1
:100A4C0049FC01303044DCE72378626899007A6213
:100A5C00FA6A796104EB8301002A40F000814D466B
:100A6C000E4601EB0A094FF000084E454CD101EB44
:100A7C000A0610E01BF0020FD1D023789A0004EB89
:100A8C0083017A6162687A62FA6A002A77D14D46EC
:100A9C0001EB0A0690461BF0050F0CBF0223012345
:100AAC00FB62FB6906EB430A0BF00203BB62564583
:100ABC00BCD016F8021B16F8013C54F82390994B45
:100ACC00994502D3984B994536D3BB69002B40D03E
:100ADC00786A04F00CFA00283BD0E9468AB06A46E2
:100AEC00924B53617B6AC2E906314FF40073138455
:100AFC008F4B42F8103F00234FF412518D48023DAA
:100B0C0000F098FCCD46D2E716F8013BF96254F898
:100B1C002300FFF7DFFBD7F884300130F96A4BB1C3
:100B2C00D7F8883098453EBFD7F8843023F81800A2
:100B3C0008F10108054498E7BB6923B1786A04F011
:100B4C00D6F90028C9D11BF0010F05D1FB6AED1AAB
:100B5C00ADE7BB6A002BAAD04846FFF7BBFBD7F822
:100B6C00843053B1D7F8883098453FBF431CD7F831
:100B7C00842022F8183008F10108054497E7BAF1EF
:100B8C00000F72D01BF0040672D0D046002607F17D
:100B9C00480052463B61B96205F0A0FBB96A3B695B
:100BAC0001EB0A02F969BA62FA695200FA60BA6A90
:100BBC0002EB41023A610BF00202BA603A69B96A7F
:100BCC008A4257D11BF0020F62780CBF4FEA5801D2
:100BDC0000217A621BF0010F3244D2B240F09F80A8
:100BEC001BF0040F14BF40460020BB616270A07064
:100BFC002046E1703A6A7969FB6A9847051EFFF650
:100C0C0015AFBB6941463A6A07F1480023707B6A0D
:100C1C0084F802A06370FB69E370FB6A9847B0F13B
:100C2C000008C0F2BB807B69A9EB0A013A6AC91AB9
:100C3C00FB68C91AD7E90A0398470028C0F2B080AC
:100C4C00A8444FF0000B07F1380A08EB0005B34538
:100C5C0072D300213A6AFB6A08469847E6E6564684
:100C6C004FF0000807F1380093E75646D04697E757
:100C7C00B04695E7BA6A12F8021B12F8015CBA6228
:100C8C0054F82500274A904202D3274A90421ED39B
:100C9C00BA6932B1786A7B6004F029F97B68002864
:100CAC008CD1BA6802BB08F1280207F1300C08F1AC
:100CBC00010008F10208944407F158025FFA88F821
:100CCC0052FA80F00CF8101C00F8105C76E7BA6948
:100CDC003AB1786A7B6004F00AF97B6800287FF4EB
:100CEC006DAF1BF0010F09D006F1280207F130009F
:100CFC00711C161806F8205CCEB25FE71BF0040FCF
:100D0C003FF45CAF08F1280207F1300008F1010153
:100D1C0002EB000808F8105C5FFA81F84EE700203F
:100D2C0063E700BF20640008B87A0008BA700008B6
:100D3C00040000013C6C00081BF80A3054F82390A6
:100D4C0087F83730D7F884302BB3D7F888309B45E9
:100D5C0021D2D7F8843033F81B803A6A012107F18D
:100D6C003700FB6A984700281ADB0544B8F1000FDE
:100D7C0006D14846FFF7AEFA00F101081FFA88F8D1
:100D8C003A6A41464846FB6A9847002808DB054406
:100D9C000BF1010B5BE74FF00008DEE7454645E63B
:100DAC00054643E6014B1860704700BF1000002455
:100DBC0080B505460E461746984603F0A9F9DFF8AC
:100DCC002090034605F01CFB0446424649F80030CF
:100DDC0039463046A84754F8090001F0D7F800BF4F
:100DEC0008000000054B00205A6822F002025A60ED
:100DFC005A6822F001025A60704700BF0010005C74
:100E0C0038B54568154C204605F09DF840B96FF093
:100E1C001204134A0121134804F0B2FB204638BDDA
:100E2C00A3681B685BB1204629469847041E09DA63
:100E3C000D4A234601210B4804F0ABFBEEE76FF0A3
:100E4C005704F5E700F014F8084B9A6842F00102D9
:100E5C009A609A68D207FCD50024DFE7E0640008AA
:100E6C006E7100088C6C00088D71000800480258E7
:100E7C00EFF31180102383F31288BFF36F8F094BAC
:100E8C001A683AB9084A116841F480711160116806
:100E9C00C905FCD51A6801321A6080F31188BFF3BA
:100EAC006F8F7047DC0800240048025808B501F029
:100EBC00B9F901F089F90C4B0C4A1A600C4AD36849
:100ECC0023F03F0343F00403D3600A4B1A6841F24A
:100EDC000303B3EB124F06D1074AD2F8083143F0A3
:100EEC000103C2F8083108BD500000240090D00363
:100EFC00004802580010005C008000512DE9F047BA
:100F0C00044607464FF00109DFF8508014B9384603
:100F1C00BDE8F08794FAA4F5B5FA85F509FA05F35E
:100F2C002E0108EB05156FEA030A24EA03042B7B58
:100F3C00002BEBD058F806301B694BB94644042201
:100F4C00284607EA0A077368196804F0A9FADDE76E
:100F5C00284698470028D9D1F0E700BF9C6C0008C0
:100F6C0030B5002289B00F490F4805F08FF90022E7
:100F7C00002300240D4D0E4928460094CDE906238C
:100F8C000E234FF44072CDE90334CDE90144094BF3
:100F9C0002F06CFE0849284602F0FCFD204609B020
:100FAC0030BD00BFC90F0008D00500242801002463
:100FBC00000B0024E512000801720008014802F041
:100FCC0049BC00BF180100242DE9F0478046204899
:100FDC000F4604F03DFA0646002832D0002528467C
:100FEC00BDE8F087237B83B12368DB680BB1204617
:100FFC009847636883F8069023681B69CBB96368CC
:10100C0004222046196804F04BFA0136103454457A
:10101C00E8D3B8F1000FE2D0002DDFD02846FFF75F
:10102C006DFF0546002FF7D00021642005F09EF8D7
:10103C00F2E7204698470028E1D009FA06F31D4351
:10104C00E3E7044C0546DFF810A04FF00109DEE79A
:10105C00F00800249C6C0008AC6C0008014B53F8A1
:10106C0020007047046D000808B5034608462BB1F4
:10107C00044A136000F074FC002008BD6FF01500EA
:10108C00FBE700BF1400002410B5044C237813B9FF
:10109C00034802F0DFFB0123237010BDD80A0024A3
:1010AC001801002410B504460B4804F0D1F95CB1CA
:1010BC000A4BBFF35B8F53E8001F013943E8001262
:1010CC00002AF8D1BFF35B8F054805F0EBF8054813
:1010DC00BDE8104002F0BEBBE8080024EC08002478
:1010EC00D0050024180100240020064BBFF35B8FB1
:1010FC00014653E8000F43E80012002AF9D1BFF370
:10110C005B8F7047E808002470B5FFF7EDFF084CC3
:10111C000546084EB44200D370BD63685B792BB1B1
:10112C0023685B6813B12946204698471034F1E7D1
:10113C009C6C0008AC6C000810B5044C04492046AB
:10114C0004F00CF8034B1C6010BD00BFA40000247D
:10115C00F06C0008E008002400230D4A4FF47A716B
:10116C000C4810B513700C4A13600C4A1360FFF74F
:10117C007BFFFFF7E1FF0A4B0A4918468B4200D36D
:10118C0010BD1A1A5C681033121101322271F5E786
:10119C00D90A002477540008E8080024EC0800243D
:1011AC009C6C0008AC6C000801460022002301482E
:1011BC0003F0F5BFA4000024014804F08EB800BF72
:1011CC00A4000024024B0146186804F0DAB800BFF2
:1011DC00E0080024014804F00FB900BFA40000246B
:1011EC00264B70B51878002846D0FFF7E5FF05466A
:1011FC0000283ED1224B234C1B68002B12DD05F03E
:10120C0043F80A220023FFF74BF8D4E90032C01A46
:10121C0040F2E93361EB0201984271F1000101D314
:10122C00FFF772FFD4E9003213F57A7342F1000232
:10123C00C4E90032BDE87040FFF7CCBF63685B794E
:10124C0023B12368294620461B6898471034B442C2
:10125C00F4D32846FFF7B6FF0B4BBFF35B8F53E875
:10126C00001F013943E80012002AF8D1BFF35B8F4D
:10127C00C0E7064C064EEAE770BD00BFD80A002452
:10128C00E8080024C8050024EC0800249C6C000825
:10129C00AC6C000870B50D4D297861B90C4C01206F
:1012AC000C4EFFF791FEB44206D3FFF799FF0028CE
:1012BC00FBD101232B7070BD63685B791BB1236874
:1012CC0020469B6898471034EDE700BFD90A0024EC
:1012DC009C6C0008AC6C000800212DE9F047084616
:1012EC00FFF772FE044658B34FF4FA784FF000093A
:1012FC001C4B05F085F81C4A1B58136033B11B4B73
:10130C001B68092B02DD1A4802F0A4FA0025194FBC
:10131C00DFF85CA044B12046FFF7F0FD044618B995
:10132C004FF0FF384FF0FF39FFF75AFF064628B948
:10133C00B5B942464B46504602F0C0FA3546E9E78D
:10134C004FF0FF384FF0FF39D2E72B689B691BB188
:10135C0000222846114698471035BD42F5D3E8E7E0
:10136C00054DFAE708000000E4080024EC0800240E
:10137C0018010024AC6C00089C6C000813B51848CC
:10138C0004F066F8174B1B7873B1EFF3118410233C
:10139C0083F31288BFF36F8FFFF722FF84F311885A
:1013AC00BFF36F8F02B010BD0F4B1B68002BF9D031
:1013BC0050B9002200230D48CDE9002342F21072EF
:1013CC00002303F0D3F9EDE70928EBD1074804F02B
:1013DC0069FF074802B0BDE8104002F03BBA00BFFD
:1013EC00EC080024D90A0024E4080024D0050024C9
:1013FC0018010024064B10B504461B68984721467B
:10140C00A060044803F04AFFBDE81040FFF7B6BFE8
:10141C0014000024A4000024044A054B9B1AB1EBD1
:10142C00D30F34BF52F83100002070473C6C0008D9
:10143C009C6C00082DE9F04F8FB0C1F34A280D4683
:10144C00914604AF0C0DB8607B60B8F1000F63D00F
:10145C00002607F114034FF0040B4FF00A0AC7F8EB
:10146C000C8032467E624846C7E90766019307F155
:10147C001C03CDF808B0CDF800A0F968FFF7ACFA62
:10148C00B0F5006F03461CD36C468AB0D9F8041033
:10149C0004AB26481A46C3E9050140F2FF71D96135
:1014AC004FF400711984224B42F8103F4FF4125143
:1014BC0033462048FFF7BEFFA5462C37BD46BDE896
:1014CC00F08FC0F30A0804F117003B60184468F36E
:1014DC00532520F007008008FFF766FE044690B104
:1014EC003B6800F11001144A4846F961C7E9083617
:1014FC0007F11403CDF808B0CDE900A307F11C03E4
:10150C00F968FFF769FA68F353257B68B9682046D8
:10151C002A4603F0E5FFD0E704F1170020F007009E
:10152C008008FFF741FE0446EDE700BF1672000885
:10153C00040000014C6C0008BF5400082DE9F04F6A
:10154C0087B00446934698460391DDE91279DDE9AC
:10155C00105ABFB13B46524610210020CDF80090E6
:10156C00CDF81490FFF766F8B0F5006F06460AD375
:10157C0040F2FF73174A0221174807B0BDE8F04F3D
:10158C0004F007B83E4604F0070405F117000BF011
:10159C00070BE400304444EA8B1420F0070044EAC3
:1015AC004624800844EA0554FFF7FEFD054640B189
:1015BC003FB13B46524631461030CDF80090FFF714
:1015CC0039F8434622460399284607B0BDE8F04F48
:1015DC0003F086BF557200084C6C0008406820B1BF
:1015EC00034BC01A40F3CF0070474FF0FF307047E9
:1015FC003C6C00080EB403B503AB0146054853F828
:10160C00042B019300F09EFF02B05DF804EB03B0D5
:10161C00704700BFE9550008CA0605D48B064CBFBD
:10162C0002490349FFF7E6BF704700BF8E720008FE
:10163C008D7200082DE9F04F89B09B4604460D468B
:10164C00149B90469DF84CA00693159B179E0593F2
:10165C00169B0493BAF1000F00F09D8006F4807382
:10166C0006F00209079303F019FF024600283ED04A
:10167C0091492046FFF7BEFF0746B9F1000F08D08D
:10168C0016F0440F35D12A468C492046FFF7B2FF9D
:10169C00074406F0010353B1894B2046894953F89E
:1016AC002A20894B002A08BF1A46FFF7A3FF06F42D
:1016BC008073002B49D006F00803002B63D1B8F1DE
:1016CC00000F66D0424681492046FFF793FF05463E
:1016DC00069B3D44002B6DD1049B002B73D1F3076B
:1016EC0000F1E48031462046FFF796FFD8E007462C
:1016FC00C3E7774B18680028CAD0764B4FF47A7939
:10170C004FF03C0C1B68B5FBF3F5B5FBF0F100FB9F
:10171C0011554FF4616309FB05F5B1FBF3F2B5FB11
:10172C00F0FE03FB121100FB1E55B1FBFCF309FB91
:10173C0005F50CFB1311B5FBF0F50091204666493D
:10174C00CDE901E5FFF756FFA2E706F00803EBB180
:10175C00624B2046624953F82A20FFF74BFF05469F
:10176C00B8F1000F05D0424658492046FFF742FF1A
:10177C000544BBF1000FABD05A465A492046FFF73F
:10178C0039FF0544A4E74FF0000BE1E706F008052C
:10179C00E6E745469CE7BBF1010F069B06D1002B03
:1017AC0064D1049B002B7BD000250CE0002BF8D0DF
:1017BC004D485CE04D48069B22464D4903F066FBC4
:1017CC00049B002B68D0DFF82C81DFF82C91049F50
:1017DC004FF0000B31462046102F28BF1027FFF783
:1017EC001BFF5D4545DC059B4FF0010B4946204630
:1017FC001A78FFF7FFFE1BF0070F03D14146204676
:10180C00FFF7F8FE5F453BD9059B4946204613F888
:10181C000B20FFF7EFFE0BF1010BBBF1100FEAD120
:10182C004FF0000B35492046FFF7E4FE5A46059B66
:10183C0020469A5CA2F120015F29314928BF2E2253
:10184C00FFF7D8FE0BF1010BBBF1100F1DD01BF0F5
:10185C00070F03D141462046FFF7CCFE5F455A46A1
:10186C00E5D841462046FFF7C5FEEBE71F48554635
:10187C00A1E7414620460BF1010BFFF7BBFEB0E799
:10188C0020492046FFF7B6FEC5E7059B3B44059370
:10189C00049BDB1B04939AD1BAF1000F7FF41FAFAA
:1018AC00204609B0BDE8F04F03F08BBE064A204637
:1018BC000449FFF79FFE15E795720008997200081E
:1018CC00146D0008BE72000890720008C172000806
:1018DC00F8080024F4080024A2720008286D0008FF
:1018EC00C5720008CB7200081F560008E9550008A5
:1018FC0051250008D8720008D0720008DA7200086E
:10190C00DC720008D672000842F20F73114A8B4247
:10191C0073B5044628BF0B4605680521684602F0DE
:10192C0079FF636806460B2228465B680A4903F078
:10193C003AFE63683246694628465B6803F033FE1C
:10194C0063681B2205495B68284603F02CFE02B035
:10195C0070BD00BF0C740008FB720008DF72000839
:10196C0000210123064A904206D8064A01B90123F8
:10197C001360054B18607047400801215B00F2E7CB
:10198C0040420F00F4080024F8080024F8B50D4676
:10199C0004464618054FB44201D12846F8BD14F848
:1019AC00011BBB6801485B689847F4E7C0660008F8
:1019BC00014B036002207047706D00082DE9F04761
:1019CC00064600AF0C46002936D0E9468AB0A3681B
:1019DC006D46D1E9001221484FF0050AA846C5E929
:1019EC000501C5E9072348F810AF002342464FF420
:1019FC0021511B48FFF71EFDCD466369AD46D4E966
:101A0C0003121848C5F810A0C5E90501C5E907235C
:101A1C00002342464FF421511148FFF70BFDCD46F0
:101A2C00E369114A01210E4803F0B3FDA3690F4A83
:101A3C0001210B4803F0ADFD012E07D1EFF3058317
:101A4C000B4A103B3146064803F0A3FD21463046B5
:101A5C0001F05CFDBD46BDE8F08700BF6173000876
:101A6C006C6C000890730008BF730008CE730008FC
:101A7C00FC73000830BFFFF7FDBF00BF2DE9F0413C
:101A8C000B4E0546DFF82C80324606EB0807CC1BC4
:101A9C000949204604F022FCA019083C42460021CA
:101AAC0004F02AFC07F10800C5F89040BDE8F0816D
:101ABC000000000004000000AC6C0008054B5A69E3
:101ACC009B689A4204D0044A536843F08053536095
:101ADC00704700BFA40A002400ED00E070B5294C4B
:101AEC0006460D462848294903F01BFEA36AD90473
:101AFC003CD52548264903F014FE1720A36A1A0585
:101B0C0004D52148234903F00CFE18201D4CA36A70
:101B1C009B0512D51C48204903F003FEA36BA26A57
:101B2C00100409D51D4A0121174803F032FD1EB1DE
:101B3C00A36A23F40043A3621920124CA36A59052B
:101B4C0004D51148164903F0ECFD1A20A36ADA05F6
:101B5C000ED50D48134903F0E4FD1B20094A936A86
:101B6C0043F47F43936200232B7070BD1620C5E7AE
:101B7C00A36A9B04F2D504480B4903F0D2FD1C2048
:101B8C00ECE700BF00ED00E06C6C00080F7400087F
:101B9C002574000836740008497400086274000843
:101BAC007774000892740008AA74000810B5204CD1
:101BBC002049214803F0B5FDA36A990136D51E488A
:101BCC001E4903F0AEFD1E20A36ADA0104D51A48A3
:101BDC001B4903F0A6FD1F20154CA36A1B0304D55B
:101BEC001548184903F09DFD2120A36A590304D51B
:101BFC001148154903F095FD22200D4CA36A9A0358
:101C0C0004D50D48114903F08CFD2320A36ADB0396
:101C1C0004D509480E4903F084FD2420044A936A34
:101C2C006FEA03436FEA1343936210BD1D20CBE7A9
:101C3C0000ED00E0D97400086C6C0008F174000829
:101C4C00047500081E7500083C75000861750008D5
:101C5C007B7500082DE9F843364D80468946364899
:101C6C003649174603F05DFDAB6ADE0627D5112415
:101C7C003349314803F055FDAB6A1D0704D51224D6
:101C8C0030492D4803F04DFD2A4DAB6A980718D505
:101C9C002D49294803F045FD6E6BAB6A190646D5F4
:101CAC002A4A33460121244803F073FCB9F1000F92
:101CBC0003D0AB6A23F08003AB62132403E010243F
:101CCC00DAE76FF015061B4DAB6ADA0704D514245E
:101CDC001F49194803F025FDAB6A9B0604D5152452
:101CEC001C49154803F01DFD124B9A6AD50602D407
:101CFC009A6A90070AD55B68190507D541463046A4
:101D0C0000F006FA10B180F309880224094B9A6A94
:101D1C00920603D55A6A22F400525A629A6A2046F5
:101D2C0042F0FF029A6200233B70BDE8F8836FF02B
:101D3C001506C2E700ED00E06C6C0008A675000803
:101D4C00BC75000836740008EF75000807760008AB
:101D5C001D760008AA7400082DE9F041664B8AB084
:101D6C0004460026D3F8048000AFC8F3080586F3B8
:101D7C001188BFF36F8F02F07F43B3F17F4F07D110
:101D8C0002F00C03082B12D15C495D4803F0C9FC2E
:101D9C00002634460023FB71EB1E092B00F28B80CE
:101DAC00DFE803F00A81847D898989898987100796
:101DBC004CBF0C460126EDE75249514803F0B1FCEB
:101DCC004D4D0023FB71EB6A9A0705D54E494C48E3
:101DDC0003F0A7FC002332E0EB6A002B01DA4B493D
:101DEC00F5E7EB6A5B00F5D54949454803F099FCEA
:101DFC006B69A26943F480736B61BFF34F8FBFF3C0
:101E0C006F8F6B6932F8022C23F480736B61BFF314
:101E1C004F8FBFF36F8F4DF602739A4208D0AB6AA7
:101E2C00DBB27BB3FA1D01212046FFF713FF38E02C
:101E3C002368384A0121324803F0ABFB2368FA7956
:101E4C00E2B907F1080504F1200C2068083454F8B5
:101E5C00041C2A46644503C21546F6D17A6A002E44
:101E6C0045D0C2F3080121B96FEA52226FEA42222F
:101E7C007A6207F108011846FFF7A0FD2837BD4626
:101E8C00BDE8F081AB6A13F47F4F04D0F91D01203B
:101E9C00FFF724FE05E0AB6AB3F5803F9AD3FFF75A
:101EAC0085FE0346CBE7FA1D0021BDE7F91D002096
:101EBC00EEE719498BE718F4F87F184AE8468AB020
:101ECC00174B18BF13466A461649103DC2E9051355
:101EDC004FF40073D5611384134B42F8103F002369
:101EEC004FF411510648FFF7A5FAC54672E722F4E4
:101EFC00FF7222F00102BBE700ED00E06A760008F9
:101F0C006C6C000895760008AC760008CD7600085D
:101F1C00DB760008FA760008167700085176000880
:101F2C003C7600083A77000804000001044B5A691B
:101F3C0042F010025A615A6922F008025A61704745
:101F4C0000ED00E0EFF30880EFF3098101B5724674
:101F5C00FFF702FF01BD00BF0A4880F3088810207C
:101F6C0080F3118808484FF40461401880F3098805
:101F7C00EFF314800221084380F31488BFF36F8FB2
:101F8C0000F090F8001C0024400E0024084B9B68C5
:101F9C0083420BD1EFF3058343B1064B5A6842F0F1
:101FAC0080525A605A6A22F400425A6202F0B6B861
:101FBC00A40A002400ED00E015498A684FF03000B7
:101FCC001044EFF3098C80E8F01F102080F3128886
:101FDC00BFF36F8F0F4F4FF000664A698A603E6007
:101FEC00D2F890000C4C2060D2F894000023C2F878
:101FFC00943080F3118804B5104600F039F9BDE82F
:10200C00044002F1300090E8F01F8CF3098870470F
:10201C00A40A002404ED00E0200900241EF0040FA3
:10202C000CBFEFF30880EFF30980816911F8021CF3
:10203C000229FFD001B5724603F068FB01BD00BF59
:10204C0000B2002807DB0123410900F01F00024AFF
:10205C00834042F82130704700E100E000B20131CA
:10206C0000284FEA0111C9B206DB00F1604000F50F
:10207C00614080F80013704700F00F00014B1954B9
:10208C00704700BF14ED00E0044B054A23F07F03BA
:10209C009360BFF34F8FBFF36F8F70470000000842
:1020AC0000ED00E008B5FFF7EFFF0C4AD2F88830DE
:1020BC0023F47003C2F88830EFF3148323F0040385
:1020CC0083F31488BFF36F8F01F00CFB02F05EF901
:1020DC0000F05CF803F044FB01F056FB00ED00E06F
:1020EC0042F8203C203A009B08495360019B21F0A8
:1020FC0001019360029B9161D3604FF08073D361B7
:10210C0000230265C0F89430704700BFBD0D000875
:10211C000A4A0346906878B113F1160FD0F8800084
:10212C0005D0A0F140029A4205D8834203D28142E5
:10213C0028BF002070470020704700BFA40A00246D
:10214C0015460D4A0E4608B50C4B9060D0F8902001
:10215C001A6000F08DF82C4686F309880020044B99
:10216C0098472046002100220023024C2047000003
:10217C0045570008BD0D0008A40A002420090024BE
:10218C00014B10221A61704700ED00E00023044857
:10219C001021C21801339B2B82F80013F9D1704720
:1021AC0000E100E008B5EFF30583064A103B02EBB3
:1021BC00C30152F8330049688847BDE80840FFF76F
:1021CC007DBC00BF00670008154A70B5536913F455
:1021DC00803323D1C2F88430BFF34F8FD2F88030D4
:1021EC0043F6E074C3F3C900C3F34E335B0103EA57
:1021FC000406014646EA81750139C2F86052F9D2EB
:10220C00203B13F1200FF2D1BFF34F8F536943F4EE
:10221C0080335361BFF34F8FBFF36F8F70BD00BF1F
:10222C0000ED00E00B4B5A6912F4003211D1BFF3F0
:10223C004F8FBFF36F8FC3F85022BFF34F8FBFF395
:10224C006F8F5A6942F400325A61BFF34F8FBFF35C
:10225C006F8F704700ED00E0024B0121024A0348EA
:10226C0000F08CB80000042400000024906D0008DD
:10227C00D0F880204021054B403A18461A60044A99
:10228C00C3E90112012100F083B800BF2409002426
:10229C0000000B1508B503461048D0F89020C2F387
:1022AC000722013A934207D90D4801210D4A03F048
:1022BC0070F96FF0150008BDC0F898300A6822F06C
:1022CC001F021A4342F01002C0F89C208A6842F0A8
:1022DC000102C0F8A0201846EDE700BF00ED00E0B9
:1022EC00646C000851770008F0B50E4685B01F46A7
:1022FC0004460025B5420DDA606810B397B1431E51
:10230C0018420AD0104A2B460121104803F041F91B
:10231C006FF01502104605B0F0BD1F28F2D92168E8
:10232C000B42EFD1236801A9019303F01AFAA368B9
:10233C000343D0B20393FFF7ADFF10F1160FE7D0B4
:10234C00421C01350C34D5E777770008646C000823
:10235C00044B0522C3F89420BFF34F8FBFF36F8F4C
:10236C00704700BF00ED00E0BFF35F8F024B00220F
:10237C00C3F89420704700BF00ED00E010B5034C8B
:10238C0001232278FFF7B0FF207010BDDB0A002478
:10239C000B4A08B500231278FFF7A6FF10F1160FB1
:1023AC0007D0084A0021D2F89030C3F30723984293
:1023BC0000DB08BDC2F898000130C2F8A010F2E7AB
:1023CC00DB0A002400ED00E0584859492DE9F043A0
:1023DC00D0F8903085B00D68C3F307239D4200F20E
:1023EC00A180FFF7C1FF49680022954201F10C0161
:1023FC001AD1504C6846504F2570FFF7D9FA00257A
:10240C000646DFF83881DFF83891AE421FD12378C9
:10241C0000204649D1F89020C2F3072293427BDB7F
:10242C000020FFF795FF4CE0C0F8982051F80C3CC9
:10243C0023F01F031343013243F01003C0F89C3008
:10244C0051F8043C43F00103C0F8A030CDE70098EC
:10245C004FEA051C00EB0511CB683B40B3F5000FB0
:10246C0044D00AD8B3F5001F2ED0B3F5800F34D06A
:10247C00B3F5801F10D00135C7E7B3F1807F3ED094
:10248C00B3F1007FF7D150F80C30886803F069F98C
:10249C004A6840F4802009E050F80C30886803F05A
:1024AC0060F940F088504A6840F43020039001A94C
:1024BC002078CDE90123FFF7EDFE002828DA6FF034
:1024CC00150005B0BDE8F08350F80C30886803F0B7
:1024DC0048F94A6840EA0800E8E750F80C30886888
:1024EC0003F03FF94A6840EA0900DFE750F80C3086
:1024FC00886803F036F94A6840F08270D6E750F8E5
:10250C000C30886803F02DF94A6840F08870CDE7EC
:10251C00237801332370AEE7C1F898300133C1F84A
:10252C00A00077E74FF0FF30CBE700BF00ED00E0F5
:10253C00C46C0008DB0A00240000F0FF0000081146
:10254C0000000206F0B587B007460E46144600217F
:10255C00102268461D4603F0CFFE02232A46214670
:10256C008DF802306846044BCDE90476019302F0F5
:10257C007DF907B0F0BD00BF8F57000808B5024BBE
:10258C001B689847002008BD30090024034B044AFF
:10259C001860937843F0020393707047300900245D
:1025AC00200000240649074821F00701C1F1105210
:1025BC0008B502F5802202F02CFC002008BD00BFFB
:1025CC008724002434090024044B03EB400000232F
:1025DC00013320F8022B9942FADC7047600000248A
:1025EC002DE9F84306464FF00009114F4FF0010852
:1025FC00347854FA89F5284600F0A6F870B12846CC
:10260C0000F0C8F857F8353043B14C4407EBC5051A
:10261C0004F01F04696808FA04F0984709F10109ED
:10262C0072785FFA89F39A42E2D2BDE8F88300BF70
:10263C0040090024034680B1B0FA80F2C2F11F02B7
:10264C00D2B2074931F912004FF0B042D2F88010E3
:10265C000B43C2F88030FFF7F3BCFF22F1E700BF59
:10266C006000002430B5B0B1B0FA80F3C3F11F03A1
:10267C00DBB20B4850F833408C4204D100EBC3055D
:10268C006D68954205D044B940F8331000EBC30097
:10269C004260002030BDFF23EBE76FF00F00F9E73D
:1026AC004009002460B1B0FA80F3C3F11F03DBB220
:1026BC00044A002142F8331002EBC3025160704708
:1026CC00FF23F5E74009002400F003020F23043236
:1026DC0092009340094A43EA900000F0030302334E
:1026EC0052F82320030C93FAA3F3B3FA83F302EA10
:1026FC00104003F01F03D840704700BF000400587F
:10270C0013B50E4C204603F01EFC40B90C480121B9
:10271C000C4A02F035FF6FF0120002B010BD02231C
:10272C00F422CDE90023A3681B681BB1694620463F
:10273C009847F2E76FF05700EFE700BFE06400083E
:10274C00446C0008A877000800F01F0201215F28E4
:10275C0001FA02F208B5034605D90C480C4A02F0FE
:10276C0018FF002008BD1F284FF0B04106D8D1F843
:10277C0088309A430CBF01200020F3E73F2802D891
:10278C00D1F89830F5E7D1F8A830F2E7446C00089E
:10279C00C777000800F01F0201215F2801FA02F23E
:1027AC0008B5034606D90B480B4A02F0F2FE6FF04F
:1027BC00150008BD1F284FF0B04103D8C1F8882080
:1027CC000020F6E73F2802D8C1F89820F8E7C1F8B6
:1027DC00A820F5E7446C0008C7770008064B1B6976
:1027EC0003F03803102B04D0182B044818BF00201A
:1027FC0070470348704700BF004402580076B01081
:10280C0000127A00344B10B518680B88C3F30B0315
:10281C00132B33D813B96FF0850047E0013B122B13
:10282C00F9D801A454F823F0BF2800088128000827
:10283C002328000885280008C5280008232800083C
:10284C0023280008C9280008CD280008D128000832
:10285C002328000823280008232800082328000820
:10286C00232800082328000823280008AD28000886
:10287C00AD280008002013E0184811E0D42B0FD02D
:10288C0003F62873C3F30B031C2BC4D8012404FADE
:10289C0003F3134C23420AD140F211142342BAD051
:1028AC0010600B68B3F5805F0ED2002010BD40089D
:1028BC00F6E7FFF793FFF3E70A48F1E70A48EFE77B
:1028CC000A48EDE70A48EBE7C3F313330133B0FBD7
:1028DC00F3F01060E9E700BF5000002400127A000A
:1028EC0000101111006CDC020076B010007E560353
:1028FC00003B5808724B37B5D3F83C2142F0040228
:10290C00C3F83C21D3F83C2102F004020192019A55
:10291C001A6842F480221A601A6842F480321A60F3
:10292C001A689203FCD51A6842F480521A60644A01
:10293C0013689B04FCD5634B9A6942F440429A613C
:10294C009A699504FCD55E4B1A6902F03802182A74
:10295C0016D11A68540706D41A6842F001021A609C
:10296C001A685007FCD5564B1A6922F007021A61F7
:10297C001A6912F0380FFBD19A6922F00F029A6192
:10298C004F4B1A6822F080721A601A6822F080622B
:10299C001A601A6822F080521A609A6A22F00302B6
:1029AC0042F002029A629A6A22F47C7242F010029D
:1029BC009A62DA6A22F00C0242F00802DA62DA6AEF
:1029CC0022F00202DA621A6B22F4FF7222F0010288
:1029DC0042F022021A63DA6A22F00102DA621A6BFE
:1029EC0022F47E421A63DA6A42F48032DA621A6B9B
:1029FC0022F4FE0242F480221A63DA6A42F40032B4
:102A0C00DA621A6B22F0FE4242F080721A63DA6AC2
:102A1C0042F48022DA621A6842F080721A601A68F4
:102A2C009101FCD5284DFFF7D9FE0446A84202D8E7
:102A3C00264800F09FFC224B9A6922F470629A613E
:102A4C009A6922F00F029A61DA6922F0700242F060
:102A5C004002DA61DA6922F4E06242F48062DA61FF
:102A6C009A6922F0700242F040029A611A6A22F0CE
:102A7C00700242F040021A621A6922F0070242F018
:102A8C0003021A611A6902F03802182AFAD1AC4210
:102A9C0002D90E4800F06EFC0A4B9A6942F440428F
:102AAC009A619A699204FCD5054A0020136923F4B3
:102ABC0000431361064B054A1A6003B030BD00BFDA
:102ACC000044025800480258FF75B0100076B01050
:102ADC0050000024132808D8054BC34013F0010FF5
:102AEC0014BF00206FF0850070476FF085007047B1
:102AFC0032070C0008B5074803F025FA38B1064830
:102B0C00FFF744FD0448FEF74DF9002008BD6FF0B7
:102B1C001200FBE7C0660008292B00080A2838B50C
:102B2C000446074D04D1AB680D2128465B689847D5
:102B3C00AB68E1B202485B689847204638BD00BFDD
:102B4C00C06600082DE9F843D0F804801746D0F889
:102B5C0010900D46D8F808001E4602F066FEB7F538
:102B6C00001F044616D1D8F808402846FFF7ACFDE4
:102B7C0084420CD1294602F058FE044602F05AFE5B
:102B8C002046FFF78FFD0021204602F05CFE00205E
:102B9C00BDE8F883B7F5800F20D0B6F1806F19D05F
:102BAC00B6F1C06F18D0B6F1007F1AD102264A4692
:102BBC000F492046FFF756FDB0B9D8F80810284643
:102BCC0002F06AFE2046314602F03DFE2046FFF739
:102BDC0031FDDCE70126EAE70326E8E76FF0850024
:102BEC00D6E76FF01500D3E76FF00F00D0E700BF0A
:102BFC00B15B000838B50369044658600A4D284695
:102C0C0003F0A1F960B1AB6861681B680C3123B1AA
:102C1C002846984700EAE07038BD6FF05700F9E796
:102C2C006FF01200F8E700BFE06400082DE9F047F0
:102C3C00044600EBC10600251C4FB44201D1002014
:102C4C0014E02068C30600F01F0911D4656845F034
:102C5C002005C0F3481AC0F34420192823D857F88C
:102C6C002080B8F1000F0DD16FF01200BDE8F08795
:102C7C00B9F1100F04D0B9F1110FEAD16568E8E78A
:102C8C003025E6E7404603F05EF90028ECD04B46D1
:102C9C002A460AF00F01404602F09AFF002804F180
:102CAC000804CADAE2E76FF01500DFE7786E000877
:102CBC00012912D0022907D089B90068094BC01A22
:102CCC0018BF0120000370470068064B984214BFE0
:102CDC004FF440504FF400507047002070474FF4B1
:102CEC0000507047000C005870B51D460026094B6B
:102CFC006C0833F812203346FDF7D2FA2A46090243
:102D0C00334641EA10610002201841F10001FDF741
:102D1C00C7FA70BDB46F00082DE9F04383B00646C6
:102D2C000C46436800AF0269D3F8008000293FD0FD
:102D3C001068D9688368DB686BB13A1D9847051E2B
:102D4C000CDA354A0121354802F01AFC28460C37BA
:102D5C00BD46BDE8F0836FF05705F2E7304B984560
:102D6C0049D1D7F804800025DFF8B8902346AAB2E1
:102D7C0040460021FFF7B8FFA0F5407048451AD92E
:102D8C0001350C2DF2D16D468AB033686A4626495E
:102D9C00D461C2E905134FF400731384234B42F83A
:102DAC00103F00234FF411511C48FEF743FBAD4676
:102DBC006FF01505CAE71A4E4046F36A23F00F036D
:102DCC002B43F3621A4B33F8152000231946FDF7F9
:102DDC0067FA22460902630841EA10610002C01832
:102DEC004FF0000341F10001FDF75AFAC0F3130054
:102DFC00F0600025AAE7D8F8003023F40043C8F8A7
:102E0C0000307B6803EB5403B3FBF4F30F2BBAD9FC
:102E1C009BB2C8F80C30ECE7BF780008946C000843
:102E2C00000C0058FFFC0F00ED78000804000001B6
:102E3C00B46F00082DE9F84306460A7940680D4640
:102E4C003369012A04685F681AD0931ED3F1000815
:102E5C0048EB03084FEA88286979FFF729FF95F8B2
:102E6C0006900346B9F1020F0DD0B9F1040F0ED044
:102E7C00AAB1033A012A0CD86FF08500BDE8F8839B
:102E8C004FF4C068E8E73AB94FF0805008E0002AE8
:102E9C00F2D14FF4805003E0033A012AECD9002020
:102EAC00B3F5805F4FD0B3F5405F4ED0002B0CBF15
:102EBC00012303239942DFD1414602F0EDFE814507
:102ECC00DAD1EB795BB3012B41D1224B9C4226D05A
:102EDC00A3F54C439C4222D003F580639C421ED048
:102EEC0003F580639C421AD003F580639C4216D094
:102EFC0003F544439C4212D0A3F51C439C420ED0D4
:102F0C0003F580639C420AD003F51C439C4206D017
:102F1C0003F580639C4202D00F4B9C42ACD12368DA
:102F2C002946304623F00103236002F06CFF002891
:102F3C00A2DB236843F00103236095E8030087E8D4
:102F4C00030000209AE70023B4E70223B2E7032B27
:102F5C00BBD091E700100140000C00582DE9F04166
:102F6C0082B006464568046900AF7248206002F0E2
:102F7C00EAFF38B9704A012170486FF0120402F070
:102F8C00FFFA0BE02068E96883681B685BB96FF097
:102F9C0057046B4A0121694802F0F2FA20460837BF
:102FAC00BD46BDE8F08198470446E8B93A1D0021BA
:102FBC00286A02F025FE041EF0DB7B6800221979DA
:102FCC001868FFF733FE041EE8DB756833692C685C
:102FDC00D3F80480236823F001032360686802F0AF
:102FEC00B2FF48B9574AC6E7554A0121534802F087
:102FFC00C7FA002CD2DBD9E7D5E901018368DB687D
:10300C0003B1984754E8003F43F00C0344E8003206
:10301C00002AF7D14146304602F0F5FE002802DACC
:10302C006FF01504BAE72B7D1BB1A36843F00803BE
:10303C00A3606B7D1BB1636843F400436360AB7D9D
:10304C001BB1636843F480336360EB7D1BB1636831
:10305C0043F4003363602B7E002B58D03A4B9C42D8
:10306C003BD0A3F54C439C4237D003F580639C4284
:10307C0033D003F580639C422FD003F580639C42D0
:10308C002BD003F544439C4227D0A3F51C439C4210
:10309C0023D003F580639C421FD003F51C439C4254
:1030AC001BD003F580639C4217D0284B9C4214D054
:1030BC006C4688B033686A462549C2E905134FF45B
:1030CC0000739383234B42F8103F00234FF4E251DB
:1030DC001A48FEF7AFF9A546A2E773681A68936819
:1030EC0043F48043936023686A7E23F0787343EA49
:1030FC00425323602368AA7E23F4F81343EA024365
:10310C002360EB7E1BB1A36843F40043A3602B7FC9
:10311C001BB1236843F000532360236843F0010381
:10312C002360E3699A02FCD5E3695B02FCD50024B9
:10313C0034E700BFE06400086E710008946C00086E
:10314C00047900082479000800100140000C005894
:10315C003F790008030000014FF0E0230F4910B540
:10316C009C691A6908689B6902F480320C4934B96D
:10317C0093B903464AB90A681044C01A10BD002B13
:10318C0008BF03460AB9A342F5D90A6802440A608B
:10319C004FF0E0221269EEE70446F3E7A00A0024A0
:1031AC009C0A00240A4B1022002083F8232046F6A8
:1031BC006052084B1A6046F65F52074B18604FF08E
:1031CC00E0235A6198611A6942F007021A6170474C
:1031DC0000ED00E0A00A00249C0A0024684620F0C0
:1031EC0007018D4619B5FFF7B7FF1149114B086858
:1031FC00D3E90042001942F10002C3E900020E4A71
:10320C0000230B6046F66053D2E90041001BB0FB73
:10321C00F3F043431B1941F10001C2E9003101F005
:10322C00A5F9FEF74BFCBDE819408546704700BF79
:10323C009C0A002410060024080600242DE9F04105
:10324C00DFF8E08099B1421C0BD14FF0E0221369FA
:10325C0023F0010313614FF07F43C8F80030BDE841
:10326C00F081D8F80060012807DC00270BE0431C34
:10327C00D8F80060F7D140F2562040F2572398421C
:10328C00A8BF1846471EEFF31185102383F312884D
:10329C00BFF36F8FFFF760FF234C4FF0E02399696A
:1032AC00D4E9002380184FF0000243F10003C4E975
:1032BC0000031E4B1A601E4B1A68831A2ED446F656
:1032CC00605C0CFB073303F5DA435F33B3FBFCF7AD
:1032DC00131A40F2D6620CFB0733934238BF1346E5
:1032EC00144A934228BF1346C8F800304FF0E0222E
:1032FC00013B90695361002381429361A1EB000370
:10330C00D4E9001238BF9B195B1842F10002C4E9E2
:10331C00003285F31188BFF36F8FA0E740F2D663BC
:10332C00E2E700BFA00A0024100600249C0A002437
:10333C0008060024407EFF0038B5EFF311851023FA
:10334C0083F31288BFF36F8F084B1C68084B1B6804
:10335C00E41AFFF701FF85F31188BFF36F8F46F670
:10336C0060532044B0FBF3F038BD00BF10060024BE
:10337C0008060024002800F08280424B9A6902F46F
:10338C004042B2F5404F1BD13F4B404A034493425D
:10339C0058D33F4A3F4B02449A4266D33E4A0244BA
:1033AC009A4264D33D4A02449A4262D33C4A024454
:1033BC009A4260D33B4A02449A421ED2012042E018
:1033CC009A6902F44042B2F5004F1AD1364B374A93
:1033DC000344934249D3364A364B02449A4246D967
:1033EC00354A02449A4244D9344A02449A4242D958
:1033FC00334A02449A42E1D9013398423FD8002023
:10340C0021E09B6903F44043B3F5804F0FD12D4B62
:10341C002D4A034493422AD32C4A2D4B02449A4200
:10342C0027D92C4A02449A4225D92B4AE1E72B4A48
:10343C002B4B02449A421CD31A4A02449A421AD386
:10344C00284AB8E70620284A136823F00F030343E1
:10345C001360136803F00F0398420ED0136803F047
:10346C000F03C01A18BF012070470520EBE704209A
:10347C00E9E70320E7E70220E5E70346F1E701204F
:10348C00704700BF00480258FFAD43F00024F40021
:10349C00FF10E3F200639F02FF7382F5FFD621F861
:1034AC00FF39C1FAFF9C60FD7FA77BF3C0E1E4000C
:1034BC00FF85FCF57FDE80027F647DF8FF42FEFA1B
:1034CC007F217FFDFFCDE4F700366E017F9AEBF98B
:1034DC007FCC0602FF66F2FB7F33F9FD7FEB10FC1D
:1034EC0080B14F017F4EB0FE0020005210B5044653
:1034FC00FDF7D0FE03480121034A02F041F82046B3
:10350C0002F02CFD6C6C00088C7900082DE9F84356
:10351C00044600AF0D46EFF31188102383F3128895
:10352C00BFF36F8F0428294AE9468AB098BF284B0D
:10353C009668117C6A4694BF53F82030254BC2E93B
:10354C00073140F2013324489384244BC2E905042B
:10355C0042F8103F00234FF431512148FDF76AFF28
:10356C00CD4645B1EB69C3F3080323B11D4A0121D4
:10357C001B4802F005F82EB1304602F064FD08B18C
:10358C00037803B91848E9468AB06A46174BD061EC
:10359C00C2E9053640F201331384154B42F8103F53
:1035AC0000234FF411510E48FDF744FF29462046E5
:1035BC00CD46FFF79BFF88F31188BFF36F8F304622
:1035CC00FEF7E4FCBD46BDE8F88300BFA40A002466
:1035DC007C6F00089B790008B17900080500000198
:1035EC006C6C0008D9790008A9790008FA790008F0
:1035FC000400000138B50A4B53F82040013053F851
:10360C002050A54200D838BD606830B1037FDB077D
:10361C0001D402F0ABFC0834F3E723689847FAE7CF
:10362C00906F00082A4B0122032070B5294C86B0FC
:10363C00294D1A70FFF7DEFF01F0D0F80420FFF7D8
:10364C00D9FF26463034AE4210D3224C00F06CFC2D
:10365C00224EAC4226D300F07BFCFCF7A7FF204A9D
:10366C00137B23F00103137306B070BD54F80C3CAC
:10367C00059354F8103C049354F8143C039354F8F9
:10368C00183C029354F81C3C019354F8203C0093D2
:10369C0054E90A2354E90C0100F08CFA54F8303C3C
:1036AC005E65CEE7D4E90A23B3F1FF3F08BFB2F160
:1036BC00FF3F05D052EA0301206803D100F004FD5E
:1036CC003034C6E73146183000F0C0FEF8E700BFD2
:1036DC00DC0A0024D86B0008D86B00084561000890
:1036EC00B806002406480021064A08B5121A02F052
:1036FC0054FC0548054A0021121A02F04EFC08BD84
:10370C0028010024E00A0024000000200000002012
:10371C0070B5A023164E86B0012203FB0066154B34
:10372C00154D044605930F231449CDE903320023AC
:10373C004FF4A072CDE90133142303FB00554FF471
:10374C00C0700F4B00FB04113046009500F032FAAC
:10375C00737B0C4A23F00403EE602C7473734FF4E8
:10376C00046304FB033313446B6006B070BD00BFED
:10377C00180600245C7A0008A40A00248016002491
:10378C00AF5F0008400E0024BFB50020FFF732FFEA
:10379C00284B83F30888284D0024F023274F85F805
:1037AC002230EC772C766C76AC7685F820406B6A00
:1037BC0043F4E0236B62FEF7B9FBFEF7E1FC4FF03C
:1037CC00FF33AB62EB62FEF7FFFD1D4DFEF744FDD0
:1037DC00FDF7C2FC1B4800F075FA02F0B3FBFDF7D5
:1037EC0065FB0120FFF706FF0220FFF703FF00F047
:1037FC00E3FB154B15494FF480625D612846144B71
:10380C00009405930123CDE90144CDE903433B46E4
:10381C0000F0D0F96A7B0646284622F004026A734F
:10382C0002F04DFC2046FFF773FF3A46314628461E
:10383C00FEF786FC8016002400ED00E0313600080F
:10384C00B806002458070024A40A002400180024F9
:10385C00EA71000870B5EFF31186102383F3128818
:10386C00BFF36F8F0468A0421BD0D4B1002504F1C4
:10387C001800D4E9003213605A60637BA56023F012
:10388C000203C4E90055637302F0D2FC2046C4F86D
:10389C00985002F014FC31460748BDE8704000F027
:1038AC001DBBD0E902329A4218BF0133836086F304
:1038BC001188BFF36F8F70BDDD0A002413B5EFF3D1
:1038CC001181102484F31288BFF36F8F846844B184
:1038DC00013C846081F31188BFF36F8F002002B02C
:1038EC0010BD52EA030406D181F31188BFF36F8F28
:1038FC006FF00F00F3E7CDE900230246014800F01A
:10390C00CBFAECE7DD0A00242DE9FF410446102731
:10391C004E4EEFF3118887F31288BFF36F8FD4F8F4
:10392C00A450F5B9022104F1BC0002F051FB0028AF
:10393C0068D004F1B40500220121284602F03EFCB7
:10394C000028F8D100234FF0FF3241464048029343
:10395C004FF0FF33CDE9002304F1AC0200F07EFC04
:10396C00D7E7D4F8A8202B689542C4F8A43008BF38
:10397C00C4F8A830D4F8BC3043F00203C4F8BC300F
:10398C00EB6823F0040343F00103EB606B6888F3EE
:10399C001188BFF36F8F28469847EFF3118887F390
:1039AC001288BFF36F8FEB68D80623F0010236D470
:1039BC00EA60EB689A0716D523F002033068EB60D7
:1039CC0088B10368002170B14268954235D1036813
:1039DC0069BB72683360824200D17360002340F887
:1039EC00083BFFF737FFD4F8BC3023F00203C4F8D0
:1039FC00BC3088F31188BFF36F8FDB0589D400F0DE
:103A0C00E3FA86E7D4F8BC30D9069BD5C4F8BC00E1
:103A1C0088F31188BFF36F8F04B0BDE8F08123F0F9
:103A2C001103EB6005F11000FFF714FFC1E70B6009
:103A3C007368834208BF7160D0E723B11A680146EE
:103A4C0018461346BFE71A46F9E700BFC40A00241C
:103A5C00DD0A0024F8B5C36804460F469A07C3F381
:103A6C0040062DD45B071BD40B680BB983680B6025
:103A7C00E368DD0745BFA368022601263B603D686D
:103A8C00002D3CD01F4B9A68D5F8A0309A420AD032
:103A9C00D5F8BC30D807C3F3800214D46FF01206EB
:103AAC0000233B6025E002F0C8FAD5F8BC300028B2
:103ABC00F0D1D907C3F3C002F0D552B15B0708D4DB
:103ACC006FF00F06ECE7002AFAD1C3F3C003002B0A
:103ADC00F6D100232360D5F8A83063B9C5E9294491
:103AEC00284602F080FAE36843F00403E3603B6885
:103AFC00A3603046F8BD1C60C5F8A840F0E76FF035
:103B0C001506CDE7A40A00240146014802F085BA47
:103B1C0018080024F0B50446002089B0C4E9290037
:103B2C0004F1AC000E9DC4E92B0004F1B400C4E90F
:103B3C002D0055B32879002840F2011008BF012050
:103B4C00C4F8BC0000204FF0FF364FF0FF37009454
:103B5C00CDE90330CDE901000D4B2046CDE90667D8
:103B6C0000F084F855B1296811B1204600F012F824
:103B7C006B791BB1237B43F001032373204600F0C8
:103B8C00A3FAC4F8A04009B0F0BD0120D8E700BFEB
:103B9C001539000810B5044608B9054B9C681F225E
:103BAC0004F1600002F0B0FB002084F87F0010BD2F
:103BBC00A40A00242DE9FF4707320E4698461099B7
:103BCC0022F0070200F15803017304217F320446EE
:103BDC00417306F1400A22F03F02119FC0E91633EF
:103BEC0000233F2AA2F1400983600F98E373A0736E
:103BFC00C4E9063305D883F31188BFF36F8F0846E9
:103C0C0002DFB51820462946FDF738FF07300E9B1A
:103C1C00314620F007000026C4F888002D1A2046F3
:103C2C002A46C4E920A902930D9B01930C9B009397
:103C3C004346FEF755FA666597B11F22394604F1E3
:103C4C00600002F061FB84F87F60074B9B680BB14E
:103C5C00D3F88C302846C4F88C3004B0BDE8F0871B
:103C6C0084F86070F1E700BFA40A0024F0B50025C9
:103C7C0087B004460595109D04950F9D03950E9DE8
:103C8C0002950D9D01950C9DDDE912760095FFF7CF
:103C9C0091FFB6F1FF3F08BFB7F1FF3F05D056EAE1
:103CAC00070305D1204600F00FFA204607B0F0BDFF
:103CBC003A46334604F11800014900F0C7FBF4E71B
:103CCC004561000840F2011383810023C0E92033D1
:103CDC00C0F88C30014B9860704700BFA40A0024D8
:103CEC000A4A6FF00A019368C3F898100849C3F8A0
:103CFC0094004B6843F080534B60002383F311888E
:103D0C00BFF36F8F9368D3F898007047A40A002410
:103D1C0000ED00E070B590F90D20437B002A36DBF6
:103D2C00D90634D11B4C63F07F0322464373E169FF
:103D3C0052F8183F934207D1C0E900210860E061B6
:103D4C0011E09942F8D01B68002BF5D090F90E5079
:103D5C0093F90E60B542F4D0AE42F2DD5968C0E979
:103D6C00003108605860A569954200D005B9E56836
:103D7C00A3685A7BD20604D1DA897F2A01D9AA69B1
:103D8C0032B1AB4202D0284600F0A8FA656170BD92
:103D9C006361FCE7A40A002438B590F90D200146B4
:103DAC00437B002A04DA03F07F03437302F04DF9DE
:103DBC000D4D2A46AB6852F8184F944200D004B906
:103DCC00EC688B4207D05A7BD20604D1DA897F2A61
:103DDC0001D9A2692AB1A34202D0204600F07EFA92
:103DEC0023466B6138BD00BFA40A0024B3F1FF3F2A
:103DFC0008BFB2F1FF3F03D00249183000F026BBD8
:103E0C00704700BF4561000870B590F90D20014660
:103E1C00437B002A04DA03F07F03437302F015F9A5
:103E2C004B7B1C4C63F07F0322464B7352F8183FBC
:103E3C00E069934207D1C1E900200160E16111E022
:103E4C009842F8D01B68002BF5D091F90E5093F9DD
:103E5C000E60B542F4D0AE42F2DD5868C1E90030D4
:103E6C0001605960A569A368954200D005B9E56861
:103E7C008B4207D05A7BD20604D1DA897F2A01D92A
:103E8C00AA692AB1AB4202D0284600F027FA2B4689
:103E9C00636170BDA40A0024F8B50E4B0C461146A4
:103EAC000D4A9868DDE906671060EFF31182102265
:103EBC0082F31288BFF36F8F9D68284602F0D7F803
:103ECC00284632463B46FFF791FF2046BDE8F840B6
:103EDC00FFF706BFA40A0024CC0A002449B9EFF36B
:103EEC00058030B9054B5A699B689A4201D0FFF79F
:103EFC00F7BE81F31188BFF36F8F7047A40A0024BB
:103F0C00034648B9EFF3058232B9064A5169926803
:103F1C00914201D0FFF7E4BE83F31188BFF36F8F9A
:103F2C00704700BFA40A0024EFF31181102383F320
:103F3C001288BFF36F8F054B9A68D37B013BD37309
:103F4C0081F31188BFF36F8F704700BFA40A002460
:103F5C0070B5EFF31186102383F31288BFF36F8FC4
:103F6C00144DAB68DA7B0132DA732A4652F8184FDB
:103F7C00944200D004B9EC685A7BD20604D1DA8999
:103F8C007F2A01D9A2692AB1A34202D0204600F0AF
:103F9C00A5F923466B6186F31188BFF36F8FEFF39E
:103FAC001180102383F31288BFF36F8FBDE870402C
:103FBC00FFF7A6BFA40A0024024B03F11802C3E9C1
:103FCC0006227047A40A002470B5EFF31186102363
:103FDC0083F31288BFF36F8F1B4CA168E0690B68E9
:103FEC00814214BF1A46002249680B605960A368CD
:103FFC00E1692AB9154AC3E900210B60E3610CE0C1
:10400C0093F90E0092F90E50A84218D0854216DD95
:10401C005168C3E900210B605360A5690B4B9D42AD
:10402C0000D005B9E568A3689D4202D0284600F08F
:10403C0055F930466561BDE87040FFF751BE8A42C4
:10404C00D8D01268D5E700BFA40A0024BC0A00240B
:10405C00F8B550EA010306460C4603D1FFF7B4FF4E
:10406C000020F8BDEFF31187102383F31288BFF300
:10407C006F8F124D124BA8681860FFF78DFEA86861
:10408C00234632460F49183000F0E0F9AA6804467E
:10409C003846537B43F004035373FFF721FEAB68A0
:1040AC00D3E90A23B3F1004F08BF002AD8D102F09C
:1040BC00E7F8201A20EAE070D3E700BFA40A002436
:1040CC00CC0A00244561000838B50446EFF311858D
:1040DC00102383F31288BFF36F8F437B5B070FD5DD
:1040EC00183002F0A5F8637B204623F004036373B9
:1040FC00FFF710FE29460548BDE83840FFF7EEBE35
:10410C0085F31188BFF36F8F38BD00BFDD0A002423
:10411C00014B9868704700BFA40A00242DE9F843AE
:10412C000446077BEFF31185102383F31288BFF34A
:10413C006F8F437B190705D585F31188BFF36F8FFC
:10414C00BDE8F883D90943F008025DD14273A36836
:10415C0013B1204601F081FF04F1180004F1580856
:10416C0002F066F8A66DB04511D04FF0000976B19B
:10417C00304601F072FF06F1180002F059F8304693
:10418C00C6F89890FFF7C6FDA66DB045EFD1DFF8E5
:10419C00C080D8F808309C423ED1EFF30589B9F1C4
:1041AC00000918BF4FF00109D8F81860294A964247
:1041BC0000D00EB9D8F80C60B34202D0304600F0F3
:1041CC008DF82046C8F8146001F0B3FAB9F1000F6D
:1041DC0002D02148FFF776FDD8F808309C4231D147
:1041EC00EFF3058373BB227BD20718D42846FFF765
:1041FC0077FDFB07A4D5002383F31188BFF36F8FE2
:10420C000423184602DF9BE703F07F0343F0080307
:10421C00437301F01AFF9AE74FF00009C4E785F3E6
:10422C001188BFF36F8F83F31188BFF36F8F042353
:10423C00184602DFEFF31180102383F31288BFF3CB
:10424C006F8FD4E785F31188BFF36F8FD1E700BF71
:10425C00A40A0024BC0A002458070024D3B5DDE9C5
:10426C000667089CCDE90067FFF716FE1CB1034BEF
:10427C009B681B69236002B0D0BD00BFA40A002458
:10428C00044B0122C01A044BC0105843034B1A5460
:10429C00704700BFF8070024ABAAAAAADD0A0024C5
:1042AC00C3897F2B12D80A4B1B6863B1094B90F959
:1042BC000E201B689A4209DB437BDB0606D1064BBA
:1042CC00C31A18BF012303F0010070470023FAE75B
:1042DC0054000024D00A0024180600240E4B70B59C
:1042EC001E7C05460D4C06EB460304EBC30420462E
:1042FC0001F09EFF0A4B002228469A55FFF7D0FF8B
:10430C0048B1084B204608491A68013ABDE870408C
:10431C00D31700F09BB870BDA40A0024F807002442
:10432C00DD0A0024540000248D42000838B5EFF358
:10433C001185102383F31288BFF36F8F104B114A32
:10434C009C681068A04206D1FFF7C8FF85F311885E
:10435C00BFF36F8F38BD00211B7C11600A4AD35C00
:10436C00002BF3D02046FFF79BFF0028EED0637B99
:10437C00DB0602D12046FFF747FD2046E4E700BFED
:10438C00A40A0024CC0A0024DD0A00240C480D4A9F
:10439C000D49121A08B501F002FE0C480C4A0D49E1
:1043AC00121A01F0FCFD0C4A0C490D4801F0F7FD06
:1043BC000C480D4A0D49121ABDE8084001F0EFBD3A
:1043CC000000002428010024B87A00080000002412
:1043DC0000000024B87A000800000000E07B000810
:1043EC00000000000000002000000020E07B00081E
:1043FC00024B1868984208BF0020704758000024F0
:10440C00034B1B680BB9FEF797BF0020704700BF2A
:10441C00D40A002430B570B10B4B5B6898420AD0BB
:10442C00036843B1D3E90421D0E90445121941EBE7
:10443C000501C3E90421D0E9003213605A6000235E
:10444C00C0E9003330BD00BF58000024B3F1FF3F7A
:10445C0008BFB2F1FF3F2DE9F84F044699461546C7
:10446C001F467AD08160EFF31188102383F31288F2
:10447C00BFF36F8FB9F1000FDFF8E4A020DBFFF77B
:10448C00BFFF0135064649F100092D18DAE900276E
:10449C0049EBE0734FF00109C4E90453AD1843EB49
:1044AC000707FFF7A5FFDFF8BCE00346DEF804A022
:1044BC00EBB9C4E900EACAF80040CEF8044028E0A1
:1044CC00DAE900126FF001035B1A4FF0FF3161EB78
:1044DC0002025B1B62EB0902012B4FF0000972F127
:1044EC000001BCBF01230022C0E90432D9E7D3E9A3
:1044FC00041CD4E904208A4270EB0C0B24DA891AD0
:10450C005A686CEB0000C3E90410C4E90032146073
:10451C005C60FFF76DFF84420ED1134B1B685BB9D7
:10452C00B9F1000F02D1FFF76BFF0646304601F0E0
:10453C0068FE0021FEF782FE88F31188BFF36F8FAF
:10454C0028463946BDE8F88F521A60EB0C009A45A4
:10455C00C4E90420ADD01B68AAE700252F46EFE77D
:10456C001008002458000024D40A00242DE9F04738
:10457C00EFF31185102383F31288BFF36F8FDFF8ED
:10458C00A4900026DFF8A0800027C9F80000FFF7F0
:10459C002FFFD9F80030D8E900ECD91750B1D0E989
:1045AC000442A34271EB020A1CDAE41A62EB010228
:1045BC00C0E9044213EB0E034FF000044CEB010175
:1045CC002046C9F80040C8E9003101F01AFE214626
:1045DC00FEF734FE85F31188BFF36F8FBDE8F0470B
:1045EC00FFF7A4BE14EB0E024CEBE473C0E90467B6
:1045FC00C8E90023FFF70EFF85F31188BFF36F8F17
:10460C0083689847EFF31185102383F31288BFF367
:10461C006F8FD9F800301B1BC9F80030FFF7E8FE8C
:10462C00B7E700BFD40A00241008002410B5EFF33C
:10463C001184102383F31288BFF36F8FFFF7E0FE12
:10464C00054A0346D2E90001181841EBE37184F3E3
:10465C001188BFF36F8F10BD10080024F8B5054604
:10466C00EFF31187102383F31288BFF36F8F036866
:10467C0023B187F31188BFF36F8FF8BDD0E90A46D9
:10468C00611C46F10002022972F1000236D3012CA2
:10469C0076F10002BCBF01241E46013C46F1FF36F8
:1046AC0001F0F2FD013041F10001001946EB01016E
:1046BC00012871F1000130DB01F0E6FD01306FF0F3
:1046CC00020341F10001001946EB010183426FF036
:1046DC0000438B4126DB01F0D7FD01306FF0010266
:1046EC0041F10001001946EB0103121A4FF0FF31A2
:1046FC0061EB03031C492846FFF7A8FE2B6B013323
:10470C002B632B6A93B93C462B4653F8185F9D429A
:10471C0000D0D5B984F31188ADE76FF001024FF0EA
:10472C00FF33E7E700224FF00043E3E787F31188FC
:10473C00BFF36F8F2B6A28469847EFF31184102331
:10474C0083F31288BFF36F8FDEE7284601F0C6FCB7
:10475C000023C5F8983084F31188BFF36F8F284677
:10476C00BDE8F84001F0ABBC694600082DE9F0410A
:10477C0005461C4690461F46EFF31186102383F323
:10478C001288BFF36F8FB4F1FF3F08BFB2F1FF3F48
:10479C0005D186F31188BFF36F8FBDE8F081002C33
:1047AC0009DB012A74F10003BCBF0122002412F1C1
:1047BC00FF3844F1FF37284601F03AFD002342460A
:1047CC002B633B46DDE90601C5E90A01284602498F
:1047DC00FFF73CFEDDE700BF69460008014800F02A
:1047EC00ADBB00BF647A0008074B07B54FF40062FD
:1047FC00009306494FF0FF330548FFF78BF9002073
:10480C0003B05DF804FB00BFA86F0008401C002437
:10481C00180800240CB430B589B005460C461C228F
:10482C00002101A801F068FD02238DF806300E4B23
:10483C000293059523462CB1B4F1004F28BF4FF0DD
:10484C000043013B1D440DAA0C99069501A800924A
:10485C0000F00CF814B1059B00221A7009B0BDE8E9
:10486C00304002B0704700BFFB6300082DE9F04FE9
:10487C008DB043680293837815469A07804640F1C1
:10488C000D8100240E78002E00F00A81252E0BD00D
:10489C004B1C03930134029B414630469847002839
:1048AC00C0F2F6800399EDE74E788B1C252E03930E
:1048BC00F0D00027B946BB46BBF11F0F38D8A6F184
:1048CC002003102B0AD8DFE803F02A090930090964
:1048DC00092109090928092D09091F00A6F130032E
:1048EC00092B33D92A2E37D11BF0400F55F8043B36
:1048FC0040F08280002BA7BF4BF0200B9946C3F1F0
:10490C0000094BF0280B01E04BF0010B039B13F853
:10491C00016B0393002ECFD130E04BF0020B4BF028
:10492C00040BF3E74BF0080BF0E74BF0100BEDE743
:10493C00BBF17F0F19D8A6F13003092BD2D81BF08D
:10494C00400F03D00A2101FB0737DFE70A2101FBE7
:10495C0009394BF0200BD9E72E2E06D11BF0400F56
:10496C0040F09E804BF0400BD0E76C2E31D02BD812
:10497C00682E36D06A2E3CD04C2E3AD0002F46F002
:10498C002003B8BF2BF04002A3F16501BCBF1FFA96
:10499C0082FB0027022901D9612B2FD1073525F085
:1049AC000705DFF8ACA2083507271BF0080F66D007
:1049BC000AEB070B56465E4563D1A4EB0A0A06EBDD
:1049CC000A02A9EB07096FE1742E9FD07A2E9DD0B5
:1049DC00D4E71BF0800F18BF4BF4007B4BF0800B1F
:1049EC0094E71BF4807F18BF4BF4007B4BF4807B67
:1049FC008CE74BF4207B89E71F4687E7A6F1630120
:104A0C00122900F2F080DFE811F013004F00EE00E5
:104A1C00EE00EE00EE004F00EE00EE00EE00EE00B9
:104A2C00EE00FE00E900EE00EE001B00EE00AF0011
:104A3C0055F8043B8DF8183001270DF1180AB4E72E
:104A4C0055F804AB834BBAF1000F08BF9A461BF024
:104A5C00400F14BF39464FF0FF31504601F064FC53
:104A6C000746A2E7029B41462020984700280FDB0F
:104A7C00013EB742F6D34C44A41BB14698E74E46D0
:104A8C00F7E716F8010B029B41469847002892DA8B
:104A9C0098F8023043F0040388F802304FF0FF34EA
:104AAC0020460DB0BDE8F08F1BF0800F34D01BF406
:104ABC00007F2CD0073525F00705AA4669685AF8FF
:104ACC00080B2BF010050029ADB237DA404261EB30
:104ADC00410145F480650DF1180B0A235A4601F08B
:104AEC002FFCA0EB0B0301936B0662D5019B25F009
:104AFC0001019F4289B240F3A180002E00F0998001
:104B0C0015F0100240F09C80BB460D4623E0AA46EF
:104B1C005AF8040BC117D4E7AA461BF4807F5AF845
:104B2C00041B01D10846F5E71BF4007F15BF48B202
:104B3C0008B241F3C01141F3C031C2E750EA01039E
:104B4C00C9D11BF0400FC6D0002FC4D12BF01102DD
:104B5C0095B2BB46019740F2064115EA01021CBF13
:104B6C000BF1010B00222CE02BF010021FFA82FB40
:104B7C000A231BF0800C49D01BF400711DBF0735B4
:104B8C0025F00705AA46AA461ABF5AF8080B696809
:104B9C005AF8040B50EA010545D12BF016051BF011
:104BAC00400FADB242D0002F40D12BF0170295B27E
:104BBC00019715F0100248D0019B002E42D103F151
:104BCC00010B29075AD4EB0706D5D9456FDD01999E
:104BDC00A9EB0B035F18CB465B4649E04BF0100B7F
:104BEC0010237826C5E7782B04D1C6F1780343F05F
:104BFC001003BEE7029B4146252098470028FFF68C
:104C0C0047AF023447E608230026B2E7AA461BF456
:104C1C0080715AF8040BBDD01BF400711ABFC0B2DE
:104C2C00614680B2B6E72BF0060295B20DF1180B77
:104C3C0054E725F01105ADB2BB468CE70D46B8E73D
:104C4C003B460D4603F1020BBBE7DDF804B082E7EF
:104C5C00AF7A0008A87A0008CDE904324146029BDD
:104C6C00202098470028FFF613AF049B059A0133C8
:104C7C009945F1DCA4EB0B01CC189B460AB3029BC3
:104C8C004146302098470028FFF602AF8EB9013418
:104C9C002744019B391B994224DC1D465DBB019ABC
:104CAC00A9EB0B09224455461446914435E0019F6B
:104CBC0092E7023441463046029B98470028E7DAD7
:104CCC00E6E640F206410D42E2D015F0020F14BFA9
:104CDC002B20202015F4806F04F10104414618BFED
:104CEC002D20E9E7029B414630209847002804F12B
:104CFC000104CEDACCE606AB013D4146585D029B81
:104D0C0098470028CADAC3E6029B41462020984700
:104D1C00002804F10104FFF6BBAEA9EB0403002B41
:104D2C00F2DCBFE570470346F0B419790068DB8804
:104D3C00DA0706694FF00105876854BF43F4B013D6
:104D4C0083F4D01334688D4023F48012DB074CBFFE
:104D5C002C43AC4334603B68F0BC184703460A460E
:104D6C0000681979012303FA01F103691B681942E0
:104D7C0018BF82F0010212B18368DB6818478368A0
:104D8C001B69FBE7012938B5054614460FD10134E0
:104D9C00FFF7E4FF04F0030305F10800013B012BCE
:104DAC0094BF01210021FFF7D9FF204638BD00290F
:104DBC00FBD1013CFFF7D2FFECE700EBC1004088D0
:104DCC0040087047F8B50346FFF7F7FFB0FA80F0DC
:104DDC00CA000C468DB2C0F11F00171D063203EB42
:104DEC00800CDCF8106056B9012101FA00F0D9688A
:104DFC000143D960CCF81040DD539D52F8BDF10051
:104E0C000431585AD85303EBC0009E52C5805D52F2
:104E1C00F4E7043A2DE9F041CC1D11444FF00008A1
:104E2C0024F0070421F007010E1B0460414604F135
:104E3C001000F708C4F80C80B7FA87F2A760C2F12B
:104E4C002405C2F12002AD009200073501F054FA9E
:104E5C00A4F800802046ED086B0004EBC50243F07B
:104E6C00010363807B1B59005180A21924F8355033
:104E7C002946A2F80280A35304EBC7035A8842F0D8
:104E8C0001025A80BDE8F041FFF79CBF2DE9F047C5
:104E9C0006460D46174698462BB398F800404FF03F
:104EAC00000A93F80190A400DB7804EB430498F813
:104EBC0002301C444444CA4509D308F10803D8F80D
:104ECC00042039463046AC46BDE8F047604714F83C
:104EDC00013B0AF1010A204648F82340FBF7FAF996
:104EEC0001300444E7E76FF01500BDE8F08770B5BA
:104EFC00002502462846144614F8013B0BB9184607
:104F0C0009E098B18D4207D1702B04D0A3F1400277
:104F1C003A2A0BD8002070BDA3F140063A2E05D8D2
:104F2C0053780135941C002BE9D00020252B224608
:104F3C0008BF80F00100DEE7002070470FB407B512
:104F4C0004A951F8040B019100F097FA03B05DF835
:104F5C0004EB04B0704710B50369024613F0080067
:104F6C0009D11368D4689C4297BF126AE31A0120D6
:104F7C00D31A0B6010BD00231846FAE713B501A92C
:104F8C000446FFF7E8FF20B1019BE268013B1344A4
:104F9C000193206A019BC01A013802B010BD10B5F4
:104FAC00044650182269236AD20702D5013B1840E7
:104FBC0010BD984228BFC01AFAE710B504460A463D
:104FCC00C168FFF7ECFF2369E06023F0080323615D
:104FDC0010BD38B58B00C2690D46016843F0020361
:104FEC00044642F821302A460168FFF7D8FFE368EF
:104FFC0061682A4698422060204602BF236943F02C
:10500C0008032361FFF7CBFF606038BD2DE9F74F34
:10501C00C7689B46C66904468846914606EB8703DB
:10502C00009316F8273003F00303022B4FF0000314
:10503C000BD01360CBF8003023699B0713D44FF0CF
:10504C00000A504603B0BDE8F08F56F827101360E5
:10505C008908CBF80030EFD0FFF7AFFFE368A3600F
:10506C004FF0010AEDE7A36906EB8700984716F8A5
:10507C002720054612F0010AE1D012F002021FD0DF
:10508C00B8F1000F03D041462046FFF7A2FF61683C
:10509C002A462046FFF783FF6060D4E90221914243
:1050AC0006D14FF0000A2A462046FFF778FFA06091
:1050BC00A2682260E260226942F008022261C0E725
:1050CC00014620460192FFF778FFE368A360B8F130
:1050DC00000F04D02168E369019A43F8212005EB05
:1050EC0008022046CBF800202168FFF758FF2369FF
:1050FC00206043F00803236116F827306FF3000398
:10510C0006F82730009BC9F80030A9E770B50446B3
:10511C001546FFF744FF2368834205D123692160BC
:10512C0023F00803236170BDAB00E269204643F015
:10513C00020342F821302A466168FFF730FF6060B5
:10514C00F1E738B5036904465B0706D5456AFFF7F6
:10515C0015FF85422CBF6562606238BD38B50D46BF
:10516C001C220021044601F0C7F8EB680022A36161
:10517C00AB6863612B68E3616B68626223622A69C6
:10518C0023B1591E194208BF42F0010222610122CB
:10519C0004F128000021BDE8384000F00DBF2DE9D6
:1051AC00F04F87B0002504460E4600939246036AE2
:1051BC00A94603958B42059539D3EFF3118B102338
:1051CC0083F31288BFF36F8F059AD8462AB129460C
:1051DC002046FFF79BFF0023059304A92046FFF709
:1051EC00BAFE04990746B1422AD322682046E369E5
:1051FC0013F8221003EB820921F0030103F82210AB
:10520C0032462168FFF7CBFEE3682060984212D04B
:10521C00002788F31188BFF36F8F039929B1626956
:10522C000AB12046904700230393002FC5D148466E
:10523C0007B0BDE8F08F236943F008032361E7E76B
:10524C0018B12046FFF7C5FEE3E7009B5AEA0302BC
:10525C001CD0019100F0F1FE0199B8B9BBF1000F1F
:10526C0014D187F31188BFF36F8F5246009B04F162
:10527C002800FEF723FBEFF31188102383F3128829
:10528C00BFF36F8FB0FA80F77F09C2E705AB03AAB3
:10529C0020462568FFF7BAFE0746BAE770B5044604
:1052AC00836908460D4698470246EFF31186102392
:1052BC0083F31288BFF36F8F2B78204643F00103E2
:1052CC002B706168FFF76BFE60602046FFF739FFBB
:1052DC0086F31188BFF36F8F70BD2DE9F041044642
:1052EC001027EFF3118687F31288BFF36F8F2369B2
:1052FC0013F0080FA36802D16268934200D9226AA6
:10530C00D21AE16932B986F31188BFF36F8F4FF06F
:10531C00000833E011F8232001EB830812F003009E
:10532C00F1D0022803D151F82350AD0805D1D00794
:10533C0012D4A369404698470546A1682A462046E0
:10534C00FFF72DFE2946A0602046FFF736FE86F3B8
:10535C001188BFF36F8FC4E742F00202404601F898
:10536C002320A568A3699847294602462046FFF7E3
:10537C0016FEA06086F31188BFF36F8F4046BDE820
:10538C00F081F8B50446836908460D4698470646F1
:10539C00EFF31187102383F31288BFF36F8F2B78F1
:1053AC006FF300032B7023699B0705D5E268E36953
:1053BC0003EB82039D421AD12B786FF341032B70C0
:1053CC00D4E90231994204D132462046FFF7E7FD79
:1053DC00A06031462046FFF7F0FD87F31188BFF33C
:1053EC006F8F04F12800BDE8F840FEF733BA2B6844
:1053FC0060F39F032B60F0E7EFF31181102383F32D
:10540C001288BFF36F8F036913F0080F836802D102
:10541C004268934200D9026AD31A81F31188BFF310
:10542C006F8F181E18BF01207047704703785B07F9
:10543C005FBF03684288C3F34A2303EB12105DBFBE
:10544C00173020F0070080080020704700207047BC
:10545C000346BFF35B8F53E8000F421C43E8002167
:10546C000029F8D1BFF35B8F704708B500F00CFF33
:10547C000A220023FAF714FF08BD1FB50023CDE95B
:10548C0002011A4619461846CDE90033FCF756F8C6
:10549C0005B05DF804FB0120FBF704BE002070474B
:1054AC004368DA7101224368196043685A71FBF74B
:1054BC00EBBD70B515460C4669B1D2E901369B1BA4
:1054CC0099420AD813680A460146981900F006FF5B
:1054DC00AB682344AB60204670BD6FF01B00FBE74C
:1054EC0070B50E4615461946044618B9BDE870400D
:1054FC00FBF7D8BD33B1C2F34A231030120D184458
:10550C0000F0ECFE2046C4E90056BDE87040FBF705
:10551C0071BF2DE9F3415F1C06460C4615464FEA58
:10552C00870808F1170020F007008008FBF73CFE05
:10553C0000238DF80470ADF805308DF8073068B194
:10554C00019A0346A8F1040143F8102F2A46294476
:10555C0052F8045B8A4243F8045FF9D1A20100239C
:10556C00314602F4E07242EA482222F07F4222F4F1
:10557C00700222F03F0202B0BDE8F041FFF7B0BF6D
:10558C0007B50123019201AAFFF7C3FF03B05DF831
:10559C0004FB07B5CDE9002302236A46FFF7B9FFE8
:1055AC0003B05DF804FBF8B506460D4614461F46DD
:1055BC0004B9F8BD214628463A46B047241A05449A
:1055CC00F6E710B54268044681680068D2E900230A
:1055DC00FFF7E9FF636800221A6010BD38B54B680D
:1055EC0005460C461A68CB689A4202D10846FFF76A
:1055FC00E8FF6368BFF35B8F53E8002F511C43E84F
:10560C0000100028F8D1BFF35B8FA36800209D54D5
:10561C0038BD0A2838B504460D4602D10D20FFF7D7
:10562C00DDFF29462046FFF7D9FF002038BD2DE9C4
:10563C00F043054687B008460E8891F800900C465A
:10564C00D1F808801746FBF7C9FF011EC6F3821676
:10565C00C9F3C2091FDB4846FBF7DEFE03462146B1
:10566C00608851F8102BC0F30B100196C2F34A223C
:10567C00002A01EB02044FF0000208BF0021009247
:10568C00CDE90407CDE9021428464146FBF7D2FFC9
:10569C0007B0BDE8F0830023E1E7436800201B68F6
:1056AC005B681961704743681B681A6852685360DD
:1056BC0070472DE9F041436801211B685A68117548
:1056CC001D68D5E901362F68D3E900481CB96B6811
:1056DC001C60BDE8F081214630464246B847241A8A
:1056EC000644F3E743681B681868FCF70DB970B5FE
:1056FC0043680C461D686B681869FBF7AFFC2146C4
:10570C0003460F222868BDE8704018470146006820
:10571C00FCF754B908B5FCF7ADF9BDE80840FCF747
:10572C00CDB90A460121FFF72BBF00210120FCF760
:10573C0045B96FF08500704761B662B680F3118889
:10574C00BFF36F8F704772B6002383F31188BFF3DA
:10575C006F8FBFF34F8F30BF62B6BFF36F8F704741
:10576C007047202809D9B0F1004F08D80138B0FA99
:10577C0080F0C0F11F0040007047082070473E20A9
:10578C00704708B5D1E904319847002008BD08B529
:10579C00FCF7F4FE002008BD08B50622012100200C
:1057AC00FCF712FF002206201146FCF757FC0121E2
:1057BC0007220846FCF708FF002207201146FCF7D9
:1057CC004DFC082201210220FCF7FEFE00220820DD
:1057DC001146FCF743FC092201210320FCF7F4FEDF
:1057EC00002209201146FCF739FC0A220121042071
:1057FC00FCF7EAFE00220A201146FCF72FFC0521DB
:10580C0017220846FCF7E0FE002217201146FCF791
:10581C0025FC282206210A20FCF7D6FE002228208F
:10582C001146FCF71BFC002008BD01F01F010120F4
:10583C00884070474FF0B042D2F8803023EA000322
:10584C00C2F880307047032925D8DFE801F0020D3B
:10585C00121C4FF0B0431A6822EA00021A605A6810
:10586C0022EA00025A6070474FF0B0431A680243B4
:10587C00F4E74FF0B0435A6802435A601A6822EAC0
:10588C0000021A6070474FF0B0431A6802431A6066
:10589C005A6810435860704700F003020F2304321B
:1058AC009200934043EA900000F00303020C92FA3A
:1058BC00A2F29B00B2FA82F203F1B04302F01F0293
:1058CC0010B5D3F80844914024EA10400143C3F8C2
:1058DC00081410BD0B8882B0C3F30B0303F62C72B3
:1058EC00C2F30B02202A14D803F1B043486803F525
:1058FC0011331A68024300201A600B88C3F30B03A0
:10590C0003F1B04303F511331B680193019B02B003
:10591C0070476FF08500FAE70B88C3F30B0303F6AF
:10592C002C72C2F30B02202A0AD803F1B043496847
:10593C00002003F511331A6822EA01021A6070473D
:10594C006FF08500704710B50888C0F30B00FDF7A9
:10595C00C1F800281FDB4A68FF2A1BD093B2C2F3A0
:10596C008454C2F3054203F1B04304FA02F203F586
:10597C001133186820EA02021A6049688BB2CA0E09
:10598C00C1F3054103F1B0438A4003F511331868A4
:10599C0002431A60002010BD436800205B681B693D
:1059AC000B60704743685B68586942400A4042404C
:1059BC0000205A617047436800205B68996170470A
:1059CC004368090400205B689961704743680020B4
:1059DC005A6853694B405361704710B50369986816
:1059EC00F8B1884219D1DC680868A142986000D1EE
:1059FC00D860002008602AB19A680A60DA68996059
:105A0C0002B9D960002010E0814206D108682060FC
:105A1C00D8688142EDD1DC60EBE7044600680028D1
:105A2C00F2D1002AE8D16FF0150010BD2DE9F0413C
:105A3C0044680120C2F38016C2F3C11C6768884019
:105A4C008E4002F0300527EA0007C2F34122202DD8
:105A5C0046EA070600FA01F7666007EB470ED4F832
:105A6C00088007FB0CFC07FB02F26FEA0E0628EA23
:105A7C000E084CEA080CC4F808C0D4F80CC02CEA88
:105A8C000E0C42EA0C02E2600CD1072912D807FA7C
:105A9C0001F2206A8A40C2EB02115A4320EA01014A
:105AAC000A43226223682D091E407D43354325603D
:105ABC00BDE8F081020A616A52435243C2EB021004
:105ACC00534321EA00010B436362EBE712F4003C01
:105ADC00F8B505460C4613461DD0960714D550074D
:105AEC005DD55022D90611D542F4007203F4C06181
:105AFC00B1F5806F42D0B1F5C06F19D0B1F5007F10
:105B0C0018D142F0800215E01022EBE79F06EDD58C
:105B1C0042F48062EAE7D60305D5D00605D4C2F379
:105B2C0040129202E2E73022E0E74FF40072DDE728
:105B3C0042F4C07213F440372E6908D0306920FA51
:105B4C0004F1C9075FBF0121A14001433161BCF1E0
:105B5C00000F06D0180314D5696801234968A340C7
:105B6C008B61002321466868FFF760FF27B9336912
:105B7C0023FA04F2D2070CD40020F8BD42F4807250
:105B8C00D8E75903EDD501212846A140FFF718FFAE
:105B9C00E7E70122A24023EA02033361ECE76FF04E
:105BAC008500EAE770B50B468968054611B15E6859
:105BBC000C6801B970BD8A682A4002D04B68304627
:105BCC0098471CB1236821461C46F2E72346FAE7A6
:105BDC00F8B51F46044640680E461546FFF726FFEB
:105BEC00112F07D101212B0501FA06F104D56368A9
:105BFC005B6899610020F8BD2046FFF7E1FEF9E7EC
:105C0C0030B5036813600579046804EBC504A3423E
:105C1C0002D36FF0010030BD5C798C4201D00833A7
:105C2C00F0E70020F7E74368C1F34B1001F01F01C8
:105C3C001B68C05801238B4003424FF0000014BF77
:105C4C00012300231370704710B54368C1F34B1048
:105C5C0001F01F011A68012384588B4023438350A1
:105C6C00002010BD10B54368C1F34B14012201F0A4
:105C7C001F0118688A40235823EA0203235000208E
:105C8C0010BD38B504460D46FFF7DEFF2946204609
:105C9C00FFF7E8FF002038BDB0F5805F07D0B0F10A
:105CAC00805F09D1002914BF012002207047002910
:105CBC0014BF032004207047002914BF02200320C6
:105CCC00704743681B68D869DA69C0F3C000D10714
:105CDC00DA6948BF40F002009207DA6948BF40F029
:105CEC0004005107DA6948BF40F02000D20504D502
:105CFC004FF4807240F008001A62C10701D50822E7
