:020000040800F2
:10000000C0190024D92C000833630008AD2C000867
:10001000AD2C0008AD2C0008AD2C0008000000003D
:10002000000000000000000000000000B92D0008E2
:10003000AD2C000800000000652D000849420008B2
:10004000152F0008152F0008152F0008152F000880
:10005000152F0008152F0008152F0008152F000870
:10006000152F0008152F0008152F0008152F000860
:10007000152F0008152F0008152F0008152F000850
:1002AC0080F0004002E000BF81F0004142001FBF1F
:1002BC005FEA410392EA030F7FEA226C7FEA236C28
:1002CC006AD04FEA1262D2EB1363C1BFD21841401D
:1002DC0048404140B8BF5B42192B88BF704710F0B3
:1002EC00004F40F4000020F07F4018BF404211F056
:1002FC00004F41F4000121F07F4118BF494292EABE
:10030C00030F3FD0A2F1010241FA03FC10EB0C00E9
:10031C00C3F1200301FA03F100F0004302D5494276
:10032C0060EB4000B0F5000F13D3B0F1807F06D323
:10033C0040084FEA310102F10102FE2A51D2B1F11B
:10034C00004F40EBC25008BF20F0010040EA030010
:10035C007047490040EB0000013A28BFB0F5000F90
:10036C00EDD2B0FA80FCACF1080CB2EB0C0200FA46
:10037C000CF0AABF00EBC25052421843BCBFD04095
:10038C001843704792F0000F81F4000106BF80F40F
:10039C0000000132013BB5E74FEA41037FEA226CD2
:1003AC0018BF7FEA236C21D092EA030F04D092F09D
:1003BC00000F08BF0846704790EA010F1CBF0020D1
:1003CC00704712F07F4F04D1400028BF40F000402E
:1003DC00704712F100723CBF00F50000704700F04E
:1003EC00004343F0FE4040F4000070477FEA226275
:1003FC0016BF08467FEA23630146420206BF5FEA46
:10040C00412390EA010F40F4800070474FF0000345
:10041C0004E000BF10F0004348BF40425FEA000C0C
:10042C0008BF704743F0964301464FF000001CE0B4
:10043C0050EA010208BF70474FF000030AE000BF0A
:10044C0050EA010208BF704711F0004302D5404248
:10045C0061EB41015FEA010C02BF844601460020BA
:10046C0043F0B64308BFA3F18053A3F50003BCFAD5
:10047C008CF2083AA3EBC25310DB01FA02FC634482
:10048C0000FA02FCC2F12002BCF1004F20FA02F289
:10049C0043EB020008BF20F00100704702F120027C
:1004AC0001FA02FCC2F1200250EA4C0021FA02F2DD
:1004BC0043EB020008BF20EADC7070474FF0FF0CE2
:1004CC001CEAD0521EBF1CEAD15392EA0C0F93EADD
:1004DC000C0F6FD01A4480EA010C400218BF5FEA7F
:1004EC0041211ED04FF0006343EA501043EA5111F2
:1004FC00A0FB01310CF00040B1F5000F3EBF4900EC
:10050C0041EAD3715B0040EA010062F17F02FD2AEF
:10051C001DD8B3F1004F40EBC25008BF20F00100D2
:10052C00704790F0000F0CF0004C08BF49024CEAE9
:10053C00502040EA51207F3AC2BFD2F1FF0340EA7B
:10054C00C250704740F400004FF00003013A5DDCEC
:10055C0012F1190FDCBF00F000407047C2F100022D
:10056C00410021FA02F1C2F1200200FA02FC5FEA1A
:10057C00310040F1000053EA4C0308BF20EADC7064
:10058C00704792F0000F00F0004C02BF400010F4D6
:10059C00000F013AF9D040EA0C0093F0000F01F083
:1005AC00004C02BF490011F4000F013BF9D041EAA5
:1005BC000C018FE70CEAD15392EA0C0F18BF93EAA7
:1005CC000C0F0AD030F0004C18BF31F0004CD8D1D1
:1005DC0080EA010000F00040704790F0000F17BF58
:1005EC0090F0004F084691F0000F91F0004F14D09E
:1005FC0092EA0C0F01D142020FD193EA0C0F03D1F6
:10060C004B0218BF084608D180EA010000F00040F8
:10061C0040F0FE4040F40000704740F0FE4040F4D3
:10062C00400070474FF0FF0C1CEAD0521EBF1CEA72
:10063C00D15392EA0C0F93EA0C0F69D0A2EB030290
:10064C0080EA010C49024FEA402037D04FF080532A
:10065C0043EA111143EA10130CF000408B4238BFEF
:10066C005B0042F17D024FF4000C8B4224BF5B1AFD
:10067C0040EA0C00B3EB510F24BFA3EB510340EA4B
:10068C005C00B3EB910F24BFA3EB910340EA9C00F9
:10069C00B3EBD10F24BFA3EBD10340EADC001B0169
:1006AC0018BF5FEA1C1CE0D1FD2A3FF650AF8B420D
:1006BC0040EBC25008BF20F0010070470CF0004C1A
:1006CC004CEA50207F32C2BFD2F1FF0340EAC25045
:1006DC00704740F400004FF00003013A37E792F006
:1006EC00000F00F0004C02BF400010F4000F013A64
:1006FC00F9D040EA0C0093F0000F01F0004C02BF5F
:10070C00490011F4000F013BF9D041EA0C0195E7C7
:10071C000CEAD15392EA0C0F08D142027FF47DAF60
:10072C0093EA0C0F7FF470AF084676E793EA0C0F50
:10073C0004D14B023FF44CAF08466EE730F0004C4E
:10074C0018BF31F0004CCAD130F000427FF45CAFDE
:10075C0031F000437FF43CAF5FE700BF42000ED2A4
:10076C00B2F1FE4F0BD34FF09E03B3EB126209D4E0
:10077C004FEA002343F0004323FA02F070474FF096
:10078C000000704712F1610F01D1420202D14FF00B
:10079C00FF3070474FF00000704700BF53B94AB9A3
:1007AC00002908BF00281CBF4FF0FF314FF0FF306D
:1007BC0000F00CB8ADF1080C6DE904CE00F008F8AF
:1007CC00DDF804E0DDE9022304B07047704700BF98
:1007DC002DE9F04786468C460846089E1546744619
:1007EC001946002B40F0C2808542B2FA82F245D9FC
:1007FC004AB1C2F1200300FA02FC2EFA03F3954031
:10080C0043EA0C0C94404FEA154EA8B2BCFBFEF820
:10081C00230C0EFB18CC08FB00F943EA0C4399455A
:10082C0028D9EB1808F1FF3704D2994502D9A8F161
:10083C0002072B44A3EB0903A4B2B3FBFEFC0EFB93
:10084C001C330CFB00F044EA0344A04214D92C19CD
:10085C000CF1FF3304D2A04202D9ACF102032C44B8
:10086C00241A43EA07401EB1D4400023346073605D
:10087C00BDE8F0874746DDE76346F1E792BB431BD3
:10088C0001214FEA154EAFB2B3FBFEFC200C0EFB60
:10089C001C330CFB07F840EA0343984562D9EB186C
:1008AC000CF1FF3004D2984502D9ACF102002B4474
:1008BC00A3EB0803A4B2B3FBFEFC0EFB1C330CFB36
:1008CC0007F744EA0344A7424ED92C190CF1FF3325
:1008DC0004D2A74202D9ACF102032C44E41B43EA34
:1008EC000040C0E7C2F1200320FA03F1954090408C
:1008FC002EFA03F303434FEA154EAFB2B1FBFEFCE5
:10090C000EFB1C10190C0CFB07F841EA0041884542
:10091C0004FA02F422D969180CF1FF3004D288458C
:10092C0002D9ACF102002944A1EB08019BB2B1FB46
:10093C00FEFC0EFB1C110CFB07F743EA01439F4224
:10094C000ED9EB180CF1FF3104D29F4202D9ACF155
:10095C0002012B44DB1B41EA004192E76046E3E7CE
:10096C006146F7E76046A3E76346B7E7834206D9DB
:10097C0016B9002108467BE7C6E900E0F9E7B3FAAF
:10098C0083F78FB9834201D3724508D8BEEB0204BA
:10099C0060EB030301209C461EB9002168E7384632
:1009AC00FAE7C6E9004CF8E7C7F1200CBB4022FA85
:1009BC000CF41C432EFA0CF120FA0CF3B840014352
:1009CC004FEA14490EFA07F5B3FBF9F81FFA84FE47
:1009DC0009FB18300B0C08FB0EFA43EA00439A454E
:1009EC0002FA07F240D9E31808F1FF3004D29A4515
:1009FC0002D9A8F102002344A3EB0A0389B2B3FB8A
:100A0C00F9F809FB183308FB0EFE41EA03418E4549
:100A1C002CD9611808F1FF3304D28E4502D9A8F104
:100A2C000203214443EA0040A0FB0298A1EB0E0113
:100A3C004145CE46434602D306D14D4504D2B9EBCF
:100A4C00020E68EB04030138002EA6D0B5EB0E02A3
:100A5C0061EB030101FA0CFC22FA07F34CEA0303E5
:100A6C00F940C6E9003198E74046C5E74346D9E767
:100A7C0010B5124805F0D3FFF0B1104805F0CFFFC8
:100A8C00D0B10F4805F037F80D4C0E4805F033F88F
:100A9C0001210C4805F01BF80121204605F017F840
:100AAC000A2004F057F80021204605F010F840F217
:100ABC00DE3004F04FF8EFE7002010BD746E000834
:100ACC00E8730008E07300082DE9F04F91B084073B
:100ADC0005460E46009302F00403DDF8689002937D
:100AEC00C2F3C203039203F10103059340F0BA81F0
:100AFC00041D30B1072909D86FF01B0011B0BDE8F7
:100B0C00F08F01F00706341DC6F10806009B4FF06C
:100B1C0000084FF0040A591E4FF0FF334746C346F6
:100B2C0001935346CDF810800DB1009A22600598C0
:100B3C00002800F3E8809848009A824203D3974833
:100B4C008242C0F0E080039AA4EB050E92074FEAB4
:100B5C009E0000F103810F2F00F2B180002D00F0F8
:100B6C00058107F140020DEB020C019A0CF8200CE8
:100B7C000CF8102C049801300490E7E07A285DD82A
:100B8C004B280ED8472859D829282DD8252852D09B
:100B9C0054D820287AD02338D0F1000B4BEB000B23
:100BAC0074E04C382E2849D8DFE800F070484848EB
:100BBC0048484848484848484B48484848484848A6
:100BCC004859484B4B595959704B6D487048184B04
:100BDC00184848827F4B48484B487F0000204FF014
:100BEC00000B4FF0040A38E02A380122C0B202FA96
:100BFC0000F010EA0E0F49D110F0625C2FD110EA10
:100C0C00020B43D06046013C5444B4FBFAF40AFB9B
:100C1C0004F4002D61D0A3EB050CA444B4453FF6BD
:100C2C006BAF002868D1042B47D159F8043B2360E3
:100C3C00043404232AE0019A013A01924FF0000B8C
:100C4C0024E011F8010C6C2834D111F8023C00207E
:100C5C006C2B8346C5D14FF0080A5346D3E709F1F4
:100C6C000709073429F0070924F00704F9E802AB57
:100C7C0035B106982044B0423FF63EAFC4E900AB14
:100C8C0008344FF0000B4FF0080A534611F8010FCF
:100C9C00002878D0BBF1000F7FF470AF2528F5D178
:100CAC00019B4FF0010B013301934FF0040AECE769
:100CBC00584694E700208346A5E7082B02D06FF036
:100CCC0015001BE709F1070929F00709F9E80223C8
:100CDC00C4E9002308340823D8E768B9042B02D1EF
:100CEC0009F10409A4E7082BE9D109F1070929F056
:100CFC00070909F10809EDE7059A013A059259F837
:100D0C00042B009210E7039A900720D5A4EB050E54
:100D1C004FF0010C4FEA9E00BEF5007FCFD20F2F93
:100D2C00CDD8F5B107F14002C0B20DEB020E019A1D
:100D3C000EF8200C0EF8102CBCF1000F3FF41AAF7B
:100D4C0060F07F0008F101080EF8200C0137C5F1A6
:100D5C00080204344FF6DA7E069297E74FF0000C47
:100D6C00DAE7BCF1000F01D00136EFE7029802364A
:100D7C000028EBD10098CDE9063105F0F2FA0644D3
:100D8C00DDE90631E2E7631BB3F5806F97D23DB91D
:100D9C00A6F10804E018B1E6C86C0008EC80000865
:100DAC009B08029A28602B709DF81030C2B1EB7032
:100DBC0085F80280B8F1000F05D008A80022C5F113
:100DCC00010C97420ED1C5F101030DF120094FF032
:100DDC00000A0DF1300B0193574512D1601B8DE6C3
:100DEC006B70E5E710F8013B190608D504EB0C0E07
:100DFC0003F07F03B6453FF67FAE04F8013B0132AA
:100E0C00DFE7B8F1000F03D099F90020002A17DBB7
:100E1C00029BD3B11AF80B2004F8012B0022019B82
:100E2C0098182044B0423FF667AE99F8000000993C
:100E3C0004F8010B2046039205F09AFA039A144425
:100E4C000AF1010A09F10109C6E799F8002055F8E1
:100E5C0022300093029B009845F8223005F081FA6D
:100E6C00421CDCE76FF00D0048E600BF2DE9F04FA7
:100E7C0095B0044600AFD7F878B0BB61CBF3C00394
:100E8C007A6239623B6151B903784678807800EB1D
:100E9C00830020443B6A9E421AD8031B3B6294F8A1
:100EAC0002A0E37856467B61BAF1000F02D01BF02A
:100EBC00010F17D17B695BBB7B6A1BB1BA692046FA
:100ECC00396A98473D6A28465437BD46BDE8F08FCD
:100EDC00451C284605F045FA3B6A0130013328448D
:100EEC003B62D7E794F8008063684FEA8802FB61A5
:100EFC0004EB88087B6AFA60002B40F002813D6AA3
:100F0C00C1460AEB080300264B454ED1D04413E0F2
:100F1C001BF0020FD0D094F800804FEA880304EB4A
:100F2C008808FB606368FB617B6A002B78D13D6AA3
:100F3C00BAF1000F4ED156461BF0050F0CBF022321
:100F4C0001237B627B6908EB430A0BF002033B62D3
:100F5C00D045B8D018F8021B18F8013C54F823906F
:100F6C00AD4B994502D3AD4B994539D33B69002B19
:100F7C0043D0F86904F00BFE00283ED0E9468AB055
:100F8C006A46A74B5361FB69C2E906314FF4007303
:100F9C001384A44B42F8103F00234FF41251A24883
:100FAC00023D01F013F8CD46D2E719F8012B7B6214
:100FBC0054F8220005F0D5F9FA6F01307B6A3AB18A
:100FCC00D7F8802096423EBFFA6F22F81600013601
:100FDC00054499E71BF004061CBFD0447E6AABE7BE
:100FEC003B6923B1F86904F0D2FD0028C6D11BF08F
:100FFC00010F05D17B6AED1AAAE73B6A002BA7D03B
:10100C00484605F0AEF9FB6F43B1D7F880309E42ED
:10101C003FBF431CFA6F22F816300136054497E7A0
:10102C00BAF1000F72D01BF0040672D0D146002624
:10103C0007F140005246414605F09AF97B69D044CD
:10104C005B00BB607B6908EB43037B610BF0020325
:10105C007B607B6998455ED123781BF0020FFB61A6
:10106C0008BF4FEA5901637818BF00211BF0010F2C
:10107C0006EB0302D2B240F09D801BF0040F14BFAC
:10108C004846002094F802B094F803803B616270EB
:10109C00A0702046E170BA69F9687B6A9847051E12
:1010AC00FFF611AFFB69494684F8038007F1400055
:1010BC0023703B69BA69637084F802B07B6A984705
:1010CC00B0F10008C0F2A3803B6ABA69A3EB0A0135
:1010DC00FB687869C91ABB68C91A7B6A98470028EB
:1010EC00C0F29780A8444FF0000B07F1300A08EBD0
:1010FC000005B34560D30021BA697B6A084698475E
:10110C00E1E64FF0000907F1300093E75646D1466F
:10111C0094E7B14692E718F8021B3F4A18F8015CB5
:10112C0054F82530934202D33C4A93421CD33B697A
:10113C0023B1F86904F02BFD00288AD17B68F3B940
:10114C0009F1280207F1280009F1010309F102094C
:10115C0002445FFA89F902F8101C07F1500252FAA6
:10116C0083F303F8105C74E73B692BB1F86904F066
:10117C000EFD00287FF46DAF1BF0010F09D006F1B6
:10118C00280207F12801731C561806F8205CDEB201
:10119C005FE71BF0040F3FF45CAF09F1280207F185
:1011AC00280109F1010302EB010909F8105C5FFA4F
:1011BC0083F94EE7002065E71BF80A3054F82390BA
:1011CC0087F82F30FB6FFBB133F81B80BA69012114
:1011DC0007F12F007B6A984700281ADB0544B8F109
:1011EC00000F06D1484605F0BCF800F101081FFAC3
:1011FC0088F8BA69414648467B6A9847002808DB5C
:10120C0005440BF1010B74E7D7F87C80DEE745460B
:10121C0059E6054657E600BFC86C0008EC8000088C
:10122C00F67600080400000188730008014B186072
:10123C00704700BF0000002430B5002587B004467D
:10124C0000950595CDE9030103A9054800F00AF8BE
:10125C00DDE904309842B8BF255407B030BD00BF5B
:10126C00E95B00082DE9F04F814695B08B46174697
:10127C001C460025387808B9284658E37B1C2528DD
:10128C00039306D05946C8470028C0F25083013555
:10129C00FBE1182200210EA805F075F87B78252BB0
:1012AC007DD00023781C98469E469C461E460146DF
:1012BC0010F8012B2B2A00F0A18000F29880202A34
:1012CC0000F09F80232A00F09F802BB19DF84030C6
:1012DC0043F040038DF84030B8F1000F05D09DF875
:1012EC00403043F020038DF84030BEF1000F05D0A4
:1012FC009DF8403043F010038DF84030BCF1000FE6
:10130C0005D09DF8403043F008038DF840302EB1E5
:10131C009DF8403043F004038DF840309DF8403088
:10132C0003F04400442803D16FF386138DF840304A
:10133C009DF840302A2A43F080038DF840307FD14D
:10134C009DF841204B1C42F001028DF841201A7887
:10135C002E2A9DF841200CBF0121002161F341028E
:10136C008DF8412078D15A782A2A6ED00133002288
:10137C004FF00A0C194611F8010BA0F13006092E9A
:10138C0040F295809DF840101292C1F3400040EA63
:10139C00D2700A4660F341028DF840205CE0BA1C22
:1013AC008DF8433003929DF84130DA0740F12E81DD
:1013BC0054F8048BB8F1000F07DA9DF84020C8F1FF
:1013CC00000842F004028DF840205E0740F12781AE
:1013DC0054F804ABBAF1000F80F226819DF841302D
:1013EC006FF341038DF841304FF0FF3A1CE12D2A89
:1013FC000DD0302A7FF469AF012358E74FF0010C70
:10140C0055E74FF0010E52E74FF001084FE7012668
:10141C004DE70EFB02620346303A184610F8016B9A
:10142C00A6F1300CBCF1090FF3D999428FD09DF87D
:10143C0040101192D20F62F341018DF8401086E7F3
:10144C000B4600224FF00A0EE7E79DF841200233CD
:10145C0042F004028DF841201A786C2A47D02BD820
:10146C00682A31D06A2A4BD04C2A51D01A4612F82D
:10147C00013B782B03928DF843309DF8412000F20C
:10148C00BE806D2B51D8692B00F2B980572B67D8D1
:10149C00412B03D0453B022B00F2B1809DF842302A
:1014AC00042262F302038DF84230012373E00CFB3B
:1014BC0002020B46303A5DE7742A25D07A2AD5D140
:1014CC009DF8412006210CE05A78682A9DF84120AD
:1014DC0006D1012161F3C60202338DF84120C5E724
:1014EC00022161F3C6028DF841200133BEE75A7820
:1014FC006C2A9DF8412001D10421EBE70321F0E790
:10150C009DF841200521ECE79DF841200721E8E7F3
:10151C00BDF8402022F4F04222F0020242F4804254
:10152C0042F00202ADF84020DFE76E3BD9B2012356
:10153C008B4040F282410B4237D113F0240F51D132
:10154C00D8075CD59DF84230032161F302038DF876
:10155C00423002F07803A3F140014B424B411AE0B8
:10156C00A3F158010120C9B200FA01F111F4624F44
:10157C0094D140F6010631421DD111F4043F3ED006
:10158C009DF8423060F3020302F078028DF842308D
:10159C00402A34D000239DF84020C2F340010B4375
:1015AC0063F341028DF84020FDE69DF842300221A4
:1015BC0061F30203E8E79DF84210022002F0780282
:1015CC0060F30201402A8DF8421002BF9DF84010D2
:1015DC0041F001018DF84010632BDBD1131E18BFB5
:1015EC000123D8E79DF84230032112F0780F61F304
:1015FC0002038DF8423014BF01230023CBE79DF882
:10160C00403043F001038DF84030C3E79DF9402092
:10161C00002AB4BFDDF844804FF0FF38D5E69807B8
:10162C007FF5E2AEDDF848A000239DF84110CDE92E
:10163C0011339DF84230C1F3C30103F00703012BB2
:10164C0033D1CB1E042B04D8DFE803F0214646210E
:10165C002100236801294FEAE372CDE90E321CD137
:10166C009DF93830DA17CDE90E3204349DF840304C
:10167C0013F0030650D0039B3A465946484604F0F3
:10168C0029FB0028C0F253810544039FF2E554F86E
:10169C00043BDA17CDE90E32E8E70229E5D11AB29C
:1016AC0043F3C033CDE90E23DFE7022B24D1CB1E4D
:1016BC00042B04D8DFE803F01810101818000129C7
:1016CC0054F8043B4FF0000214D00229CDE90E323D
:1016DC00CCD19BB20E93C9E7073424F00704F4E88D
:1016EC000223CDE90E23C1E754F8043B0E930023EB
:1016FC000F93BBE7DBB2CDE7042B08D1073424F002
:10170C000704D4E900230834CDE90E23AEE7032BFC
:10171C00ACD154F8043BDDE79DF843007828B4D8ED
:10172C0062281CD825283FF4ADAD5828ADD10DF159
:10173C00360310AA009308ABDDE90E0104F084FA1D
:10174C00BAF1000F074680F29A80002F9DD00DF160
:10175C003603D81B002E00F0C1800130BEE0633888
:10176C00152892D801A252F820F000BF4D1800089D
:10177C005F180008971600089716000897160008BF
:10178C00971600085F1800089716000897160008AF
:10179C009716000897160008ED1800088518000821
:1017AC00AB1800089716000897160008D117000808
:1017BC009716000885180008971600089716000859
:1017CC0085180008BAF1000F0E9F35DB51463846DC
:1017DC0004F0E5FD07EB000A002F3FF456AF00269E
:1017EC009DF8423013F01002059200F09380023005
:1017FC005B06119A48BF129B1044049248BFC01854
:10180C00B8F1000F40F39F809DF84020A8EB000832
:10181C00C2F380035007069300F19580510640F106
:10182C0089803EB159463046C84700287FDB069B6D
:10183C0001351E4630227EE0384604F092FDC9E7A1
:10184C000E9B002608AF0DF1210A01208DF82030E7
:10185C00C6E7190756BFC3F300132B265E01DDE95B
:10186C000E23002BBFF663AF52424FF02D0663EBF5
:10187C004303CDE90E235AE7002658E700260DF165
:10188C0036039DF84020DB1B6FF386129A458DF8CA
:10189C0040207FF65AAFAAEB0303119355E70E983D
:1018AC0090B30DF1360310AA0021009308AB04F09D
:1018BC00CBF9BDF84230BAF1000F074603F0EF0345
:1018CC0043F4F04343F01003ADF84230D6DA00286D
:1018DC003FF4DBAE0DF136030026181A9A467FE76B
:1018EC000E9B07293FF6D1AEDFE801F00C04060C85
:1018FC0008080C0C1D70C8E61D80C6E6EA17C3E983
:10190C000052C2E61D60C0E62E4F0646052007F1C8
:10191C00050A65E71A0748BF013069E710460793C7
:10192C0006925946C8470028DDE9062304DA15B0AB
:10193C00BDE8F08F202243461946013B0029EDDC1F
:10194C00454498466D1A2EB159463046C847002872
:10195C00EDDB01359DF84230DA0601D41B0705D5C5
:10196C0059463020C8470028E1DB0135059B33B1CF
:10197C0059469DF84300C8470028D8DB0135049E22
:10198C002E4405E059463020C8470028CFDB0135EE
:10199C00731B002BF6DC53463A465946484604F076
:1019AC0099F90028C3DB0544A844A8EB0503002BD8
:1019BC007FF76BAE59462020C8470028B7DB0135AE
:1019CC00F3E700BFAA770008334B70B55A6912F4DD
:1019DC00003211D1BFF34F8FBFF36F8FC3F850227A
:1019EC00BFF34F8FBFF36F8F5A6942F400325A61C5
:1019FC00BFF34F8FBFF36F8F274A5369D90327D497
:101A0C00536913F4803323D1C2F88430BFF34F8F62
:101A1C00D2F8803043F6E074C3F3C900C3F34E33FD
:101A2C005B0103EA0406014646EA81750139C2F8F6
:101A3C006052F9D2203B13F1200FF2D1BFF34F8F3C
:101A4C00536943F480335361BFF34F8FBFF36F8FF0
:101A5C00124B134A1A60134BDA6822F03F0242F021
:101A6C000402DA609A6922F4404242F400429A611C
:101A7C009A699204FCD50C4B1A6841F20303B3EB40
:101A8C00124F06D1094AD2F8083143F00103C2F8CB
:101A9C000831002070BD00BF00ED00E044000024C0
:101AAC000090D003004802580010005C00800051E8
:101ABC002DE9F047044607464FF00109DFF8508046
:101ACC0014B93846BDE8F08794FAA4F5B5FA85F553
:101ADC0009FA05F32E0108EB05156FEA030A24EA4F
:101AEC0003042B7B002BEBD058F806301B694BB949
:101AFC0046440422284607EA0A077368196800F06E
:101B0C0051FADDE7284698470028D9D1F0E700BF05
:101B1C00C873000830B5002289B00F490F4805F092
:101B2C00A0F80022002300240D4D0E4928460094F5
:101B3C00CDE906230E234FF44072CDE90334CDE9F1
:101B4C000144094B03F0EAF90849284604F085FFE3
:101B5C00204609B030BD00BF7D1B0008680500247D
:101B6C00E0000024C00800245D1E0008C2770008B5
:101B7C00014803F049BA00BFCC0000242DE9F0471E
:101B8C0080461E480F4604F028FB064678B3002515
:101B9C002846BDE8F087237B73B12368DB680BB163
:101BAC002046984723681B69CBB9636804222046FA
:101BBC00196800F0F7F9013610344C45EBD3B8F145
:101BCC00000FE5D0002DE2D02846FFF771FF054647
:101BDC00002FF7D00021642003F0DEFCF2E7204652
:101BEC0098470028E1D00AFA06F31D43E3E7044CBA
:101BFC000546DFF810904FF0010ADEE7E0060024FE
:101C0C00C8730008D8730008014B53F820007047C4
:101C1C003074000808B5034608462BB1044A13601B
:101C2C0000F074FC002008BD6FF01500FBE700BF4E
:101C3C000400002410B5044C237813B9034803F0B6
:101C4C00E3F90123237010BD7C080024CC00002490
:101C5C0010B50446084804F0C0FA5CB1074BBFF35A
:101C6C005B8F53E8001F013943E80012002AF8D1BA
:101C7C00BFF35B8F10BD00BFD8060024DC06002428
:101C8C000020064BBFF35B8F014653E8000F43E87F
:101C9C000012002AF9D1BFF35B8F7047D8060024DD
:101CAC0070B5FFF7EDFF084C0546084EB44200D363
:101CBC0070BD63685B792BB123685B6813B12946EF
:101CCC00204698471034F1E7C8730008D873000811
:101CDC0010B5044C0449204604F00DF9034B1C606C
:101CEC0010BD00BF900000241C740008D006002416
:101CFC0008B5084A00234FF47A7107481370074A55
:101D0C001360074A1360FFF785FFBDE80840FFF733
:101D1C00DFBF00BF7D08002401620008D806002444
:101D2C00DC060024014600220023014804F004B91B
:101D3C0090000024014804F09DB900BF90000024DD
:101D4C00024B0146186804F0E7B900BFD006002426
:101D5C00014804F01DBA00BF90000024254B70B55B
:101D6C001878002844D0FFF7E5FF054690B1224BC8
:101D7C00BFF35B8F53E8001F013943E80012002AC0
:101D8C00F8D11E4CBFF35B8F1D4EB44226D32846B0
:101D9C00FFF7D6FF1B4B1C4C1B68002B12DD04F00D
:101DAC005EFF0A220023FEF7F9FCD4E90032C01AC8
:101DBC0040F2E93361EB0201984271F1000101D369
:101DCC00FFF76EFFD4E9003213F57A7342F100028B
:101DDC00C4E90032BDE87040FFF7BABF63685B79B5
:101DEC0023B12368294620461B6898471034CCE75A
:101DFC0070BD00BF7C080024DC060024C8730008FA
:101E0C00D8730008D80600246005002470B50D4D69
:101E1C00297861B90C4C01200C4EFFF7AFFEB4428F
:101E2C0006D3FFF79BFF0028FBD101232B7070BD5D
:101E3C0063685B791BB1236820469B689847103414
:101E4C00EDE700BF7D080024C8730008D8730008B4
:101E5C0000212DE9F0470846FFF790FE044648B3F1
:101E6C004FF4FA784FF0000903F0AEFB1A4B1860F0
:101E7C0030B11A4B1B68092B02DD194803F0C4F86A
:101E8C000025184FDFF858A044B12046FFF710FE8C
:101E9C00044618B94FF0FF384FF0FF39FFF75EFFDB
:101EAC00064628B9B5B942464B46504603F0D0F821
:101EBC003546E9E74FF0FF384FF0FF39D4E72B6890
:101ECC009B691BB100222846114698471035BD422C
:101EDC00F5D3E8E7044DFAE7D4060024DC06002429
:101EEC00CC000024D8730008C873000813B5184838
:101EFC0004F073F9174B1B787BB14FF01003EFF321
:101F0C00118483F31288BFF36F8FFFF727FF84F3DD
:101F1C001188BFF36F8F02B010BD0F4B1B68002BE5
:101F2C00F9D050B9002200230C48CDE9002342F22D
:101F3C001072002303F094FDEDE70928EBD107485C
:101F4C0004F09BFE064802B0BDE8104003F05CB8FC
:101F5C00DC0600247D080024D40600246805002437
:101F6C00CC000024064B10B504461B68984721464C
:101F7C00A060044804F05EF8BDE81040FFF7B6BF5F
:101F8C000400002490000024044A054B9B1AB1EB7A
:101F9C00D30F34BF52F8310000207047887300080B
:101FAC00C8730008084BC31A1B1110B401334468E2
:101FBC00237143689A7101224368196043685A710E
:101FCC0010BCFFF737BE00BFC87300082DE9F04FF7
:101FDC008FB0C1F34A280D46914604AF0C0DB86082
:101FEC007B60B8F1000F63D0002607F114034FF0AB
:101FFC00040B4FF00A0AC7F80C8032467E62484642
:10200C00C7E90766019307F11C03CDF808B0CDF8BA
:10201C0000A0F968FEF72AFFB0F5006F03461CD349
:10202C006C468AB0D9F8041004AB26481A46C3E9AA
:10203C00050140F2FF71D9614FF400711984224BF4
:10204C0042F8103F4FF4125133462048FFF7BEFFC1
:10205C00A5462C37BD46BDE8F08FC0F30A0804F145
:10206C0017003B60184468F3532520F007008008E4
:10207C00FFF758FE044690B13B6800F11001144A7A
:10208C004846F961C7E9083607F11403CDF808B0E2
:10209C00CDE900A307F11C03F968FEF7E7FE68F32E
:1020AC0053257B68B96820462A4604F0D4F8D0E75B
:1020BC0004F1170020F007008008FFF733FE0446F8
:1020CC00EDE700BFD777000804000001907300080B
:1020DC00376200082DE9F04F87B004460F4693464F
:1020EC009846DDE91269DDE9105AA6B31021334692
:1020FC0052460020CDF80090CDF81490FEF7E4FC89
:10210C00014604F0070405F117000BF0070B134B05
:10211C00E400084403EA4123039144EA8B1420F0C1
:10212C0007001C438008FFF7FDFD44EA05540546F3
:10213C0040B13EB13346524603991030CDF8009071
:10214C00FEF7C2FC434622463946284607B0BDE896
:10215C00F04F04F080B83146D3E700BF00FE0F000B
:10216C000EB403B503AB0146054853F8042B019399
:10217C0004F097F802B05DF804EB03B0704700BFB1
:10218C00D7620008CA0605D48B064CBF0249034926
:10219C00FFF7E6BF704700BF1778000816780008F5
:1021AC002DE9F04F89B09B4604460D469DF84C3006
:1021BC0006920493DDE91493DDE916760593049BEE
:1021CC00002B00F0878006F0080306F0020A079344
:1021DC0004F029F8024600284BD086492046FFF728
:1021EC00BFFF8046BAF1000F08D016F0440F42D161
:1021FC002A4681492046FFF7B3FF804406F00103CD
:10220C005BB17E4B2046049A7D4953F822207D4BCE
:10221C00002A08BF1A46FFF7A3FF06F00803002B9D
:10222C0055D0794B2046049A784953F82220FFF771
:10223C0097FF0546069B2BB11A4675492046FFF7BA
:10224C008FFF0544BBF1000F05D05A46714920465B
:10225C00FFF786FF05444544B9F1000F49D1002F23
:10226C004FD1F30700F1C08031462046FFF78AFFBB
:10227C00B4E08046B6E7684B18680028BDD0674BC1
:10228C004FF47A7E4FF461623C211B68B5FBF3F589
:10229C00B5FBF0F300FB13550EFB05F5B3FBF2FA9F
:1022AC00B5FBF0FC02FB1A3200FB1C55B2FBF1F340
:1022BC000EFB05F501FB13225949B5FBF0F5009215
:1022CC0020465246CDE901C5FFF74AFF95E706F0D7
:1022DC000805AFE7BBF1010F06D1B9F1000F64D1CE
:1022EC00002F7BD000250CE0B9F1000FF8D04D4841
:1022FC005CE04D484B4622464C4903F017FC002F3E
:10230C0068D0DFF82C91DFF82CA1102F4FF0000BC8
:10231C0031462046B84628BF4FF01008FFF732FF71
:10232C005D4545DC059B4FF0010B514620461A7864
:10233C00FFF716FF1BF0070F03D149462046FFF7A6
:10234C000FFFD8453BD9059B5146204613F80B206F
:10235C00FFF706FF0BF1010BBBF1100FEAD14FF0A9
:10236C00000B35492046FFF7FBFE5A46059B2046DD
:10237C009A5CA2F120015F29304928BF2E22FFF779
:10238C00EFFE0BF1010BBBF1100F1DD01BF0070F73
:10239C0003D149462046FFF7E3FED8455A46E5D817
:1023AC0049462046FFF7DCFEEBE71F48049DA1E7FA
:1023BC00494620460BF1010BFFF7D2FEB0E720494E
:1023CC002046FFF7CDFEC5E7059BB7EB0807434456
:1023DC0005939AD1049B002B7FF443AF204609B0A0
:1023EC00BDE8F04F03F064BF064A20460449FFF7EE
:1023FC00B7FE39E71E780008227800084074000800
:10240C004778000819780008547400084A780008C6
:10241C005078000854780008E8060024E4060024EC
:10242C002B7800080D630008D7620008AF62000823
:10243C00617800085978000863780008657800080E
:10244C005F7800082DE9F0410F8886B04B6805468F
:10245C000C4690468E68C7F382175BB1144A9B1AE0
:10246C0043F3CF01002921DB2078C0F3C200FFF732
:10247C008BFD03462146608851F8102BC0F30B10DE
:10248C000197C2F34A22002A01EB02044FF000022A
:10249C0008BF00210092CDE90408CDE902142846BA
:1024AC003146FFF77DFE06B0BDE8F0810023E1E781
:1024BC008873000842F20F73114A8B4273B50446BD
:1024CC0028BF0B4605680521684603F0A6FB636828
:1024DC0006460B2228465B680A4903F0D5FE636862
:1024EC003246694628465B6803F0CEFE63681B22C1
:1024FC0005495B68284603F0C7FE02B070BD00BFFB
:10250C002F800008847800086878000800210123D7
:10251C00064A904206D8064A01B901231360054BBE
:10252C0018607047400801215B00F2E740420F0041
:10253C00E4060024E8060024014B002019607047D3
:10254C0000070024024B012202481A7003F0B0BEAF
:10255C007F080024847400080148FFF7ABBF00BF5C
:10256C0084740008064B10B50C461868FFF74CFB3A
:10257C000F22034621460348BDE81040184700BF10
:10258C000007002484740008F8B50D46044646186C
:10259C00054FB44201D12846F8BD14F8011BBB68A5
:1025AC0001485B689847F4E7886E0008014B0360AC
:1025BC0001207047947400082DE9F047814600AF64
:1025CC000C4600294CD06E468AB0A3686D46D1E902
:1025DC00001227484FF0050AA846C5E90501C5E9D0
:1025EC00072348F810AF002342464FF421512148ED
:1025FC00FFF7ECFCB5466369AD46D4E903121E48FF
:10260C00C5F810A0C5E90501C5E90723002342461A
:10261C004FF421511748FFF7D9FCB546E36988B050
:10262C006D46164A4FF0030AA846C5E9052348F83B
:10263C0010AF002342464FF4C2510E48FFF7C6FCC0
:10264C00B546A369AD460E4AC5F810A0C5E90523E9
:10265C00002342464FF4C2510648FFF7B7FCB5467B
:10266C002146484602F0A6FABD46BDE8F08700BFF9
:10267C00DA780008B0730008097900083879000886
:10268C004779000830BFFFF7FDBF00BF044B9968C6
:10269C005869884203D003494FF080520A60704752
:1026AC004C08002404ED00E02DE9F04186B006460C
:1026BC000D4600AF474B02244FF4825107F1100234
:1026CC007B6145483C6103F035FE444B9B6AD90461
:1026DC006DD5434B07F110023F484FF48251C7E9C7
:1026EC00044303F027FE17203C4B9B6A1A050BD5BD
:1026FC003C4B07F1100238484FF482517B610223A6
:10270C003B6103F017FE1820344CA36A9B0523D5BC
:10271C00E846354B07F110022F484FF482517B618C
:10272C0002233B6103F006FEA36BA26A100412D5D0
:10273C0088B06A462D492848C2E9051303234FF493
:10274C00C25142F8103F03F0F5FDC5461EB1A36A15
:10275C0023F40043A3621920204B9B6A59050BD527
:10276C00234B07F110021C484FF482517B6102236A
:10277C003B6103F0DFFD1A20184B9A6AD20518D57D
:10278C001C4B07F1100214484FF482517B61022359
:10279C003B6103F0CFFD1B20104A1837936A43F4BA
:1027AC007F43936200232B70BD46BDE8F081162059
:1027BC009AE79B6A9B04EFD50F4B07F11002064872
:1027CC004FF482517B6102233B6103F0B3FD1C206B
:1027DC00E2E700BF75790008B073000800ED00E077
:1027EC008B7900089C790008AF790008C87900083B
:1027FC00DD790008F8790008107A000810B586B069
:10280C00364B022404AA4FF48251354805930494A4
:10281C0003F090FD334B9B6A9A015DD5324B04AAB1
:10282C002F484FF48251CDE9044303F083FD1E2061
:10283C002C4B9B6ADB010AD52C4B04AA28484FF47D
:10284C00825105930223049303F074FD1F20254B42
:10285C009B6A1C030AD5264B04AA21484FF48251CB
:10286C0005930223049303F065FD21201D4B9B6A05
:10287C0059030AD51F4B04AA19484FF482510593EA
:10288C000223049303F056FD2220164B9B6A9A03F5
:10289C000AD5194B04AA12484FF48251059302230E
:1028AC00049303F047FD23200E4B9B6ADB030AD5F0
:1028BC00124B04AA0A484FF4825105930223049345
:1028CC0003F038FD2420074A936A6FEA03436FEA4A
:1028DC001343936206B010BD1D20A9E73F7A000890
:1028EC00B073000800ED00E0577A00086A7A00081F
:1028FC00847A0008A27A0008C77A0008E17A0008F6
:10290C002DE9F04786B081468A46904600AF514B80
:10291C00022407F110024FF482517B614E483C6156
:10292C0003F008FD4D4B9B6ADE0645D54C4B07F179
:10293C0010024FF482514848C7E90443112403F0B4
:10294C00F9FC464B9B6A1D070BD5464B122407F12D
:10295C0010024FF482517B6102233F483B6103F02C
:10296C00E9FC3E4DAB6A980728D56C463E4B4FF4BC
:10297C00825107F1100238487B6102233B6103F05E
:10298C00D9FC6E6BAB6A190660D588B06A46374BBA
:10299C004FF4C2513048C2E90536032342F8103FC8
:1029AC0003F0C8FCA546BAF1000F03D0AB6A23F0C4
:1029BC008003AB62132403E01024C2E76FF015060A
:1029CC00264B9B6ADA070BD5294B142407F110020E
:1029DC004FF482517B6102231F483B6103F0AAFC38
:1029EC001E4B9B6A9B060BD5224B152407F110023C
:1029FC004FF482517B61022317483B6103F09AFC30
:102A0C00164B9A6AD50602D49A6A90070AD55B6867
:102A1C00190507D54946304600F036FA10B180F357
:102A2C00098802240D4B9A6A920603D55A6A22F43D
:102A3C0000525A629A6A2046183742F0FF029A6294
:102A4C00002388F80030BD46BDE8F0876FF015060E
:102A5C00B0E700BF0C7B0008B073000800ED00E08D
:102A6C00227B00089C790008557B00086D7B0008D0
:102A7C00837B0008107A00082DE9F043774B8BB06C
:102A8C0005460026D3F8048000AFC8F3080486F38B
:102A9C001188BFF36F8F02F07F43B3F17F4F0ED1DC
:102AAC0002F00C03082B19D16D4B07F118024FF4EF
:102ABC0082516C48FB610223BB6103F03BFC002696
:102ACC0035460023FB71E31E092B00F2A680DFE8DC
:102ADC0003F00A999C95A4A4A4A4A49F10074CBF2E
:102AEC000D460126EDE7E9465F4B4FF0020807F172
:102AFC0018024FF48251FB615A48C7F8188003F052
:102B0C0019FC564C0023FB71E36A9A070BD5574B03
:102B1C00C7E9068307F118024FF48251514803F0BC
:102B2C0009FC002441E0E36A002B01DA504BEFE78B
:102B3C00E36A5B00F5D54F4B07F118024FF4825155
:102B4C004848C7E9068303F0F5FB6369AA6943F4B7
:102B5C0080736361BFF34F8FBFF36F8F636932F87C
:102B6C00022C23F480736361BFF34F8FBFF36F8F1D
:102B7C004DF602739A4208D0A36ADBB28BB3FA1DEE
:102B8C0001212846FFF7BCFE3AE088B02B686A4664
:102B9C0039493448C2E9051303234FF4C25142F8B2
:102BAC00103F03F0C7FBCD462C68FB79ABB9202254
:102BBC00294607F1080003F0DBFB7B6A002E47D0A7
:102BCC00C3F3080222B96FEA53236FEA43237B62F3
:102BDC0007F108012046FFF7EFFC2C37BD46BDE896
:102BEC00F083A36A13F47F4F04D0F91D0120FFF783
:102BFC005BFD05E0A36AB3F5803F92D3FFF7FEFDC2
:102C0C000446D2E7FA1D0021BBE7F91D0020EEE7D0
:102C1C001A4BFB610223BB617CE718F4F87F184A5E
:102C2C00E8468AB0174B18BF13466A461649103C43
:102C3C000C48D461C2E905134FF400734FF41151E1
:102C4C001384124B42F8103F03F074FBC54668E73F
:102C5C0023F4FF7323F00103B9E700BF00ED00E09C
:102C6C00D07B0008B0730008FB7B0008127C0008C6
:102C7C00337C0008417C0008607C00087C7C0008E8
:102C8C00B77B0008A27B0008A07C000804000001B0
:102C9C00024A536943F010035361704700ED00E0A2
:102CAC00EFF30880EFF3098101B57246FFF7E4FEFC
:102CBC0001BD00BF002304481021C21801339B2B17
:102CCC0082F80013F9D1704700E100E0102080F386
:102CDC00118808484FF40461401880F30988EFF319
:102CEC0014800221084380F31488BFF36F8F00F027
:102CFC0091F80000000C0024084B9B6883420BD118
:102D0C00EFF3058343B1064B5A6842F080525A6088
:102D1C005A6A22F400425A6202F05CBC4C0800244D
:102D2C0000ED00E0094A0A499368096858679967F9
:102D3C0008494B6843F080534B60002383F31188A0
:102D4C00BFF36F8F9368986F704700BF4C080024D7
:102D5C00C076000800ED00E012498A684FF03000A0
:102D6C001044EFF3098C80E8F01F102080F31288D8
:102D7C00BFF36F8F0C4F4FF000664A698A603E605C
:102D8C00506F0023536780F3118804B5104600F090
:102D9C00DBF8BDE8044002F1300090E8F01F8CF342
:102DAC00098870474C08002404ED00E01EF0040F65
:102DBC000CBFEFF30880EFF30980816911F8021C56
:102DCC000229FFD001B503F0AAFA01BD00B2002818
:102DDC0007DB0123410900F01F00024A834042F83F
:102DEC002130704700E100E000B2013100284FEAC9
:102DFC000111C9B206DB00F1604000F5614080F8BA
:102E0C000013704700F00F00014B1954704700BFBE
:102E1C0014ED00E00F4A08B522F07F020E4B9A60C9
:102E2C00BFF34F8FBFF36F8FD3F8882022F470025B
:102E3C00C3F88820EFF3148323F0040383F314887E
:102E4C00BFF36F8F01F072FF02F024FCFFF732FF2B
:102E5C0001F0C8FF0000000800ED00E042F8203C43
:102E6C00203A009B07495360019B21F001019360BC
:102E7C00029B9161D3604FF08073D3610023026594
:102E8C0043677047415C0008094A0346906870B17B
:102E9C0013F1160F406E05D0A0F140029A4205D8EE
:102EAC00834203D2814228BF002070470020704724
:102EBC004C08002408B5094B0D461446986000F0E8
:102ECC0043F8204685F30988002163B681F3118805
:102EDC00BFF36F8F0022002302F0ACFE4C080024DD
:102EEC00014910220A60704710ED00E072B64040B4
:102EFC0080F31188BFF36F8FBFF34F8F30BF62B673
:102F0C00BFF36F8F704700BF01B5EFF30580A0F1E1
:102F1C0010004FEAC0000449014409C99847BDE8B4
:102F2C000140024908470000B06E000899260008CD
:102F3C00024B0121024A034800F0A6B80000042409
:102F4C0000000024A4740008426E4021044B403A57
:102F5C0018461A60034AC3E90112012100F09EB819
:102F6C000407002400000B15084AC2F898000B68EF
:102F7C0023F01F03034343F01003C2F89C308B680B
:102F8C0043F00103C2F8A030704700BF00ED00E031
:102F9C0080B500AF88B06A46074BC2E90530032301
:102FAC0042F8103F00234FF4C2510448FFF70EF8CB
:102FBC006FF01500BD4680BDB77C0008A8730008F3
:102FCC002DE9F04184B00C461D468046002600AF2A
:102FDC00A64218DAD8F80400A0B3FDB1411E08428D
:102FEC0016D06C4688B06A461A4BC2E905360323E4
:102FFC0042F8103F00234FF4C2511748FEF7E6FF8A
:10300C00A5466FF0150210461037BD46BDE8F0819D
:10301C001F28E6D9D8F800301942E2D1D8F8003090
:10302C00D2B27B6003F08DF9D8F808300F2A43EA4E
:10303C0000031046FB6009D9FFF7AAFF10F1160F29
:10304C00DFD0421C013608F10C08C1E7391DFFF72F
:10305C008BFFF6E7DD7C0008A8730008044B052203
:10306C00C3F89420BFF34F8FBFF36F8F704700BF2F
:10307C0000ED00E0BFF35F8F024B0022C3F89420F9
:10308C00704700BF00ED00E010B5034C012322781F
:10309C00FFF796FF207010BD80080024094A08B580
:1030AC0000231278FFF78CFF10F1160F03D0064B9C
:1030BC0000220F2800DD08BDC3F898000130C3F8CA
:1030CC00A020F6E78008002400ED00E0F0B54D4D9F
:1030DC0089B02C68102C00F2928000200C26FFF78F
:1030EC00C9FF84420DD1484D01A8484F2C70FFF701
:1030FC005DFA00240646A6420AD10020FFF7AEFF77
:10310C0027E0696806FB0011FFF72EFF0130E8E7A6
:10311C0001984FEA041C00EB0411CB683B40B3F55B
:10312C00000F56D017D8B3F5001F3CD0B3F5800F65
:10313C0044D0B3F5801F1DD0354B07930223069363
:10314C00002306AA4FF482513248FEF73FFF6FF07E
:10315C00150009B0F0BDB3F1807F43D0B3F1007F0F
:10316C00EAD150F80C30886803F0EBF84A6840F468
:10317C00802009E050F80C30886803F0E2F840F049
:10318C0088504A6840F43020049028780F28CDE904
:10319C00022330D9FFF7FCFE0028D8DB2B78013452
:1031AC0001332B70A7E750F80C30886803F0C9F88E
:1031BC0040F088504A6840F40020E5E750F80C30A5
:1031CC00886803F0BEF840F0E0604A6840F40030D4
:1031DC00DAE750F80C30886803F0B3F84A6840F02E
:1031EC008270D1E750F80C30886803F0AAF84A686E
:1031FC0040F08870C8E702A9FFF7B6FECEE74FF0A3
:10320C00FF30A6E7F0730008800800240000F0FFF0
:10321C00007D0008A8730008014B1860704700BFC0
:10322C00080000242DE9F041054600244FF0010868
:10323C004FF0B0460E4F2B7853FA84F01F280FDC5A
:10324C0008FA00F3D6F8882033EA020208D1C6F84F
:10325C00883057F830301BB107EBC00251689847E3
:10326C0001346A78E3B29A42E5D2BDE8F08100BF3E
:10327C0010070024044B03EB40000023013320F81B
:10328C00022B9942FADC704750000024084B02468E
:10329C004FF0B04110B433F910000123D1F8804045
:1032AC0093402343C1F8803010BCFFF78FBD00BFA3
:1032BC00500000240A4B30B553F830408C4204D1F6
:1032CC0003EBC0056D68954205D034B943F8301056
:1032DC0003EBC0035A60002030BD6FF00F00FBE71A
:1032EC0010070024034B002243F8302003EBC003EB
:1032FC005A60704710070024044B05489B6A03F082
:10330C000303022B18BF0020704700BF0044025873
:10331C0000127A0010B50A68102A23D8134BD34038
:10332C00DB071FD54A68D3B2C2F34234C2F304227E
:10333C0003F1B04304FA02F203F51133186820EAE2
:10334C0002021A604968CBB2C1F30242C1F30421F4
:10335C0003F1B0438A4003F511331868024300208F
:10336C001A6010BD6FF08500FBE700BF0E24010052
:10337C0008B5084B1B6903F03803102B06D0182B2B
:10338C0006D1FFF7B9FF2323584308BD0248FCE7D9
:10339C000020FAE70044025800127A0008B52E4BC0
:1033AC0018680B68102B2BD813B96FF0850038E018
:1033BC00013B0F2BF9D801A151F823F03F34000841
:1033CC004934000859340008B7330008B7330008F3
:1033DC00B7330008B7330008B7330008B733000819
:1033EC000934000831340008B73300083B340008B6
:1033FC00B7330008B73300083534000817480EE01F
:10340C00D42B0CD0D83B1C2BCFD8012101FA03F3C1
:10341C0013490B421ED140F211110B42C5D0106062
:10342C00002008BD0020FAE7FFF7A2FFF7E70D48E0
:10343C00F5E7FFF761FF23235843F0E7FFF75CFF45
:10344C00232358430523B0FBF3F0E8E7FFF754FFC1
:10345C00232358434008E2E74400002400127A007A
:10346C0000101111006CDC02714B37B5D3F83C2104
:10347C0042F00402C3F83C21D3F83C2102F00402D0
:10348C000192019A1A6842F480221A601A6842F476
:10349C0080321A601A689103FCD51A6842F4805283
:1034AC001A60634B1A689204FCD51A6902F0380250
:1034BC00182A17D11A68550707D41A6842F0010266
:1034CC001A605B4A13685C07FCD5594B1A6922F0E9
:1034DC0007021A611A6912F0380FFBD19A6922F0AF
:1034EC000F029A61524B1A6822F080721A609A6A23
:1034FC0022F0030242F002029A629A6A22F47C726F
:10350C0042F010029A62DA6A22F00C0242F00802CF
:10351C00DA62DA6A22F00202DA621A6B22F4FF72C1
:10352C0022F0010242F022021A63DA6A22F001024E
:10353C00DA621A6B22F47E421A63DA6A42F480323F
:10354C00DA621A6B22F4FE0242F480221A63DA6AFF
:10355C0042F40032DA621A6B22F0FE4242F08072C0
:10356C001A63DA6A42F48022DA621A6842F08072D4
:10357C001A601A689001FCD52E4BDA6822F03F02D3
:10358C0042F00402DA609A6942F440429A619A6904
:10359C009104FCD5284DFFF7EBFE0446A84202D857
:1035AC00264801F01BFA224B9A6922F470629A6148
:1035BC009A6922F00F029A61DA6922F0700242F0E5
:1035CC004002DA61DA6922F4E06242F48062DA6184
:1035DC009A6922F0700242F040029A611A6A22F053
:1035EC00700242F040021A621A6922F0070242F09D
:1035FC0003021A611A6902F03802182AFAD1AC4295
:10360C0002D90E4801F0EAF90A4BDA6822F03F02BF
:10361C0042F00402DA609A6942F440429A619A6973
:10362C009204FCD5064B0020044A1A6003B030BD4E
:10363C000044025800480258FF75B0100076B010D4
:10364C004400002408B5074803F0E9F938B10648EE
:10365C00FFF7E2FD0448FDF7E9FD002008BD6FF01F
:10366C001200FBE7886E0008793600080A2838B586
:10367C000446074D04D1AB680D2128465B6898477A
:10368C00AB68E1B202485B689847204638BD00BF82
:10369C00886E000838B5036904465860084D284602
:1036AC0003F0BDF940B161682846AB680C311B686A
:1036BC00984700EAE07038BD6FF01200FBE700BFDE
:1036CC00706D0008F7B517460C461D464668B7F5F1
:1036DC00001F026928D101F003030F2204339B0061
:1036EC009A4042EA9102374902F00303023351F83F
:1036FC002310130C93FAA3F3B3FA83F301EA1242E7
:10370C0003F01F0322FA03F3B2689A4209D1204650
:10371C0002F097FE2046FFF7E5FD0021204602F05F
:10372C009DFE002003B0F0BDB7F5800F44D02649B4
:10373C002046FFF7BFFD002841D1244A6B46B668EE
:10374C0092E8030083E80300214819468268126856
:10375C009047D8B904F003030F2104339B00994020
:10376C0041EA940101F003030A0C92FAA2F29B00C5
:10377C00B2FA82F203F1B04302F01F02D3F808044C
:10378C00964020EA11410E43C3F80864B5F1806FEE
:10379C000ED0B5F1C06F0DD005F17E4359425941A1
:1037AC004900204602F05AFE2046FFF76FFDB8E7AD
:1037BC000121F6E70321F4E76FF08500B2E76FF023
:1037CC000F00AFE700040058C3660008D873000868
:1037DC00706D00082DE9F047044600EBC10600258A
:1037EC001C4FB44201D1002014E02068C30600F045
:1037FC001F0911D4656845F02005C0F3471AC0F3C2
:10380C0043200A2823D857F82080B8F1000F0DD197
:10381C006FF01200BDE8F087B9F1100F04D0B9F1C8
:10382C00110FEAD16568E8E73025E6E7404603F07A
:10383C00F6F80028ECD04B462A460AF00F01404619
:10384C0002F050FF002804F10804CADAE2E76FF036
:10385C001500DFE7B0750008B1F5807F22D016D8CF
:10386C00102921D00FD8012920D0042908BF012309
:10387C0018BF08231049026AC85C02238340134016
:10388C0023FA00F07047402908BF0323F0E7B1F595
:10389C00805F0DD0B1F5803F0CD0B1F5806F08BFC3
:1038AC000523E5E70423E5E70223E3E70023E1E74B
:1038BC000623DFE70723DDE7037F00082DE9F04F40
:1038CC0001F1FF3C8FB016469946BCF1050F00AFD5
:1038DC004468B7F8608015D96C4688B06A46914B3D
:1038EC00C2E90531032342F8103F8F4800234FF4FF
:1038FC00C251FEF76BFB6FF01500A5463C37BD4679
:10390C00BDE8F08F2268B2F1804F06D0874B9A4207
:10391C0003D0B6F5803F00F20281854B032908F4F1
:10392C00807B53F82C500BD9BBF1000F11D12846DA
:10393C00DA46BEB9136A23EA000313620020DDE7FE
:10394C007C4B53F82CA0BBF1000F07D0BAF1000F41
:10395C0006D16C4688B06A46774BC1E72846E8E743
:10396C005046E6E7A36833BB013E136A08F0010832
:10397C0030EA03034FEA48082DD007F1180003F092
:10398C0043F86023BB610123BBF1000F58D1FB61ED
:10399C00C7F82880BAF1000F62D0236851461B6A21
:1039AC003AEA03030CBF012300233B622068FFF7B4
:1039BC0053FFF86254E0102B02D109F1FF39D3E721
:1039CC0023F04001202902D0402B40F0A8804FEA80
:1039DC0059097608C9E7B0F5807F00F0968024D8A5
:1039EC00102800F094801CD8012800F09280042844
:1039FC0008BF012318BF08235048116AC05C02237A
:103A0C00834008FA00F821EA0303494643EA080315
:103A1C0013624B4B206853F82C3098472368DE62B6
:103A2C008CE7402808BF0323E4E7B0F5805F72D031
:103A3C00B0F5803F71D0B0F5806F08BF0523D9E792
:103A4C003B622946C7F82C8023681B6A35EA0303BE
:103A5C000CBF01230023FB612068FFF7FDFEB86259
:103A6C00C7F8249007F118022946206800F034FEAC
:103A7C0070B1344B7B6102233B612B48002307F16F
:103A8C0010024FF48251FEF7A1FA6FF0040035E7F3
:103A9C002268B5F5807F136843F0800313602268B9
:103AAC002BD01FD8102D2AD018D8012D04D0042DBE
:103ABC0008BF012018BF0820234B1832195C234B78
:103ACC005558185C082383402B4353502368DE62FF
:103ADC002268536943F0010353612FE7402D08BF5F
:103AEC000320E7E7B5F5805F0BD0B5F5803F0AD032
:103AFC00B5F5806F08BF0520DCE70420DCE7022069
:103B0C00DAE70620D8E70720D6E7042374E7022378
:103B1C0072E7002370E706236EE707236CE76FF06C
:103B2C008500EBE6F57D0008B8730008000C00403A
:103B3C00387600082C7600080A7E0008037F0008FF
:103B4C0014760008317E0008157F00080C7F0008F1
:103B5C002DE9F0478EB000AF06694568DFF8488163
:103B6C00404602F05CFF034688B9504AFA620222D2
:103B7C00BA626FF0120407F128024FF482514C48DC
:103B8C00FEF724FA20463837BD46BDE8F087D8F852
:103B9C0008A005F10C094046DAF800304946984770
:103BAC00041E10DA6D4688B06A46424BC2E90534F1
:103BBC00032342F8103F00234FF4C2513C48FEF758
:103BCC0005FAAD46DEE7DAF80C3043B33A1D494648
:103BDC0040469847041E24DB374B07F118001B693D
:103BEC0000F000FD3B6AD6E9010133608368DB68B5
:103BFC0003B1984707F118020021686902F08AFDA9
:103C0C00041E07DBBB69002219791868FFF7E2FD77
:103C1C00041E0BDA6D4688B06A46284BC6E76FF077
:103C2C0057046D4688B06A46254BBFE7381D002403
:103C3C0002F0E1FE6B68391DBB80AB68C7E9034439
:103C4C00BB60286800F0F2FC70B11E4BFB620223D3
:103C5C00BB624FF48251234607F128021448FEF749
:103C6C00B5F96FF004048DE72B68174A93420FD017
:103C7C0002F5806293420BD002F57052934207D04A
:103C8C0002F58062934203D002F58062934203D125
:103C9C005A6C42F400425A642A680024136843F0B8
:103CAC00010313606EE700BF706D00085B7E0008B7
:103CBC00B87300087A7E000800440258BC7E0008E5
:103CCC009A7E0008DA7E0008000001407FB5074BA1
:103CDC00059302230493002304AA4FF48251044851
:103CEC00FEF774F907B05DF804FB00BF2F7F0008E6
:103CFC00C0730008F8B50C46036941685D68237908
:103D0C00012B15D09F1E7E427E41B6026279022A9B
:103D1C0096BF444F4FF4005737F81270A279022A1D
:103D2C0009D0042A2FD0003B18BF01231B0306E047
:103D3C004FF4C066EAE7B3FA83F35B091B07E27939
:103D4C000968012A14BF4FF0000C4FF4407CA542C7
:103D5C001CD10A6822F0805222F4B05232431A432A
:103D6C000A604B6823F440533B434B6043681A682A
:103D7C00936823F4407343EA0C0393602968BDE80D
:103D8C00F84002F0E9BD4FF48053D8E7D1F800E0D9
:103D9C000EF4C06E764506D0D1F800E02EF4C06E5D
:103DAC004EEA06060E6041680E68716801F44051D7
:103DBC008F4204D0716821F44051394371604168DD
:103DCC000E68316801F010218B4204D0316821F06B
:103DDC0010210B433360436819688B6803F44073FC
:103DEC009C4505D08B6823F4407343EA0C038B602D
:103DFC0043681B689968490405D5032A09D09A6859
:103E0C0022F4804204E0032A03D19A6842F48042EF
:103E1C009A6021682B68994203D002F09DFD2368BB
:103E2C002B60F8BDF0760008F0B587B00546466803
:103E3C00046900AF7448206002F0F1FD034680B9BC
:103E4C00724A7A6102223A616FF0120407F1100291
:103E5C004FF482516E48FEF7B9F820461C37BD4628
:103E6C00F0BD2068F16883681B6898470446E8B980
:103E7C003A460021F06902F04DFC041EEDDB3B6874
:103E8C00002219791868FFF7A5FC041EE5DB6C68A5
:103E9C002B6922685E68136823F001031360606865
:103EAC0002F0BDFD034680B95A4ACAE75A4B7B6102
:103EBC0002233B61002307F110024FF48251544856
:103ECC00FEF784F8002CC8DBD2E7D4E90101836843
:103EDC00DB6803B19847226852E8003F43F00C03BB
:103EEC0042E800310029F7D131462846FFF702FF9E
:103EFC00237D23B12268936843F008039360637DAC
:103F0C0023B12268536843F400435360A37D23B16B
:103F1C002268536843F480335360E37D23B12268F5
:103F2C00536843F400335360227E2368002A5DD02B
:103F3C003A4A93423DD0A2F54C42934239D002F515
:103F4C008062934235D002F58062934231D002F503
:103F5C00806293422DD002F54442934229D0A2F5BF
:103F6C001C42934225D002F58062934221D002F587
:103F7C001C4293421DD002F58062934219D0284A0C
:103F8C00934216D06C4688B02B686A462549C2E924
:103F9C0005134FF400739383234B42F8103F002317
:103FAC004FF4E2511A48FEF711F8A5466FF01504CC
:103FBC0053E76B681A68936843F4804393602268F4
:103FCC00617E136823F0787343EA415313602268CF
:103FDC00A17E136823F4F81343EA01431360E37ED4
:103FEC0023B12268936843F40043936022681368FA
:103FFC0043F0010313602368DA699102FCD5DA6996
:10400C005202FCD5002428E7706D00085B7E000886
:10401C00C07300087D7F00085D7F00080010014020
:10402C00000C0058987F000803000001F8B5024608
:10403C00036946680C4608795D68012891F805E02B
:10404C008B7922D1BEF1020F40F28480022B1F46E5
:10405C004FF4C0614FF4005C00F09680042B00F02C
:10406C008D8028B1C31E012B40F28B804FF4805001
:10407C00BCF5805F00F09280BCF5405F00F0908052
:10408C00BCF1000F1CD101231BE002280AD1BEF1A8
:10409C00020F6CD9022B1F464FF480610BD04FF4EA
:1040AC00005CDBE7BEF1020F64D9022B1F4663D123
:1040BC0000286FD00021C31E012B62D900200227DB
:1040CC00032373455DD102F089FBB84259D1E379E2
:1040DC0063B3012B66D1336834498B4226D0A1F5EA
:1040EC004C418B4222D001F580618B421ED001F5F0
:1040FC0080618B421AD001F580618B4216D001F59C
:10410C0044418B4212D0A1F51C418B420ED001F5DB
:10411C0080618B420AD001F51C418B4206D001F51F
:10412C0080618B4202D022498B422AD131681046E1
:10413C000B6823F001030B602146FFF7DBFD3268AF
:10414C00136843F00103136094E8030085E803004F
:10415C000020F8BD4FF4C061164F022B37F81EC07B
:10416C001F467FF47BAF78B94FF0805080E74FF457
:10417C008061F1E70021EFE7002190E700283FF490
:10418C0075AF6FF08500E4E7C31E012BF9D9022748
:10419C0000206DE701464FF0805091E7002390E737
:1041AC0002238EE7032B96D0EBE700BF00100140F3
:1041BC00000C0058F07600084FF0E0230F4910B5C2
:1041CC009C691A6908689B6902F480320C4934B9FD
:1041DC0093B903464AB90A681044C01A10BD002BA3
:1041EC0008BF03460AB9A342F5D90A6802440A601B
:1041FC004FF0E0221269EEE70446F3E7440800248E
:10420C00400800240A4B1022002083F8232046F695
:10421C006052084B1A6046F65F52074B18604FF01D
:10422C00E0235A6198611A6942F007021A617047DB
:10423C0000ED00E0440800244008002410B5FFF70E
:10424C00BBFF1049104B0868D3E90042001942F13A
:10425C000002C3E900020D4A00230B6046F66053CE
:10426C00D2E90041001BB0FBF3F043431B1941F1B1
:10427C000001C2E9003101F0FBFABDE81040FEF785
:10428C0005BA00BF40080024A8050024A00500249E
:10429C002DE9F041DFF8E08099B1421C0BD14FF0D1
:1042AC00E022136923F0010313614FF07F43C8F838
:1042BC000030BDE8F081D8F80060012807DC002749
:1042CC000BE0431CD8F80060F7D140F2562040F2C6
:1042DC0057239842A8BF1846471E4FF01003EFF320
:1042EC00118583F31288BFF36F8FFFF765FF234CA3
:1042FC004FF0E0239969D4E9002380184FF00002B5
:10430C0043F10003C4E900031D4B1A601D4B1A68EE
:10431C00831A2ED446F6605C0CFB073303F5DA43A4
:10432C005F33B3FBFCF7131A40F2D6620CFB073376
:10433C00934238BF1346144A934228BF1346C8F819
:10434C0000304FF0E022013B906953610023814221
:10435C009361A1EB0003D4E9001238BF9B195B18E1
:10436C0042F10002C4E9003285F31188BFF36F8F6C
:10437C009FE740F2D663E2E744080024A805002436
:10438C0040080024A0050024407EFF0038B54FF003
:10439C001003EFF3118583F31288BFF36F8F084B73
:1043AC001C68084B1B68E41AFFF706FF85F311889D
:1043BC00BFF36F8F46F660532044B0FBF3F038BD6B
:1043CC00A8050024A005002438B54FF01003EFF326
:1043DC00118583F31288BFF36F8F054B1C68FFF7B1
:1043EC00EBFE85F31188BFF36F8F204438BD00BFFF
:1043FC00A8050024024A536823F002035360704757
:10440C000010005C024B1868C0F34040704700BFBE
:10441C0000440258024B1868C0F38000704700BF7C
:10442C0000440258024B1868C0F30020704700BFCC
:10443C0000440258044B054A9B6903F00F03D35CFC
:10444C0003F01F03D840704700440258D57F000882
:10445C00044B054ADB69C3F30213D35C03F01F035F
:10446C00D840704700440258D57F0008044B054AD9
:10447C00DB69C3F30223D35C03F01F03D8407047FE
:10448C0000440258D57F0008044B054A1B6AC3F34D
:10449C000213D35C03F01F03D8407047004402584A
:1044AC00D57F0008364A2DE9F341936A054603F09F
:1044BC000303012B57D0022B5BD0002B49D00026D5
:1044CC000023C5E90033AB602D4B9A6A1F6BDC6A85
:1044DC00C2F3051814F0010402D05C6BC4F3CC04D5
:1044EC00B8F1000F32D0DA6AC7F30807D00307F12E
:1044FC0001070BD51B6B3A4641463046C3F34623A6
:10450C0001330093234602F048FA28601C4BDA6A08
:10451C0091030BD51B6B3A4641463046C3F3064319
:10452C0001330093234602F038FA6860144BDA6AC0
:10453C0052030BD51B6B3A4641463046C3F3066318
:10454C0001330093234602F028FAA86002B0BDE8BC
:10455C00F081FFF75FFF0028B1D01368094EC3F359
:10456C00C103DE40ACE7FFF75DFF0028A7D0064E85
:10457C00A6E7FFF747FF0028A1D0044EA0E700BF35
:10458C00004402580090D00300093D0000127A004C
:10459C001FB5104A136903F03803102B17D007D836
:1045AC0053B1082B0C4818BF002005B05DF804FB74
:1045BC00182B07D00020F8E713680848C3F3C10391
:1045CC00D840F2E701A8FFF76DFF0198EDE704482A
:1045DC00EBE700BF0044025800093D000090D003F7
:1045EC0000127A0010B50446FFF7D2FF2060FFF7E7
:1045FC0021FF0146A060FFF72BFFE0600846FFF7A4
:10460C0035FF084B206108469B69074AC3F3021328
:10461C00D35C03F01F0321FA03F36361FFF734FF4C
:10462C00A06110BD00440258D57F0008284A0368D9
:10463C00904235D0B0F1804F32D0A2F57C429042FE
:10464C002ED002F5806290422AD002F58062904210
:10465C0026D002F57842904222D002F57052904258
:10466C0023D1CA6823F44073134303608B68C3627D
:10467C000B888362164B98420FD003F580639842E7
:10468C000BD003F57053984207D003F58063984222
:10469C0003D003F58063984213D10B69036310E0D8
:1046AC0023F070034A681343DBE70A4A9042D8D0E0
:1046BC0002F580629042D4D003608B68C3620B8891
:1046CC008362436943F0010343610020704700BFDC
:1046DC000000014000440140B1F5805F30B500F0AE
:1046EC0011810AD8102900F08680B1F5807F00F086
:1046FC00C68001293DD0012030BDB1F5803F00F0CE
:10470C003681B1F5801FF6D1036A23F4801303625E
:10471C00036A416D146823F4001321F0807121F4B5
:10472C00E04141EA0424116943EA0153516823F43E
:10473C00801343EA0153A84988420FD001F58061E8
:10474C0088420BD001F57051884207D001F5806189
:10475C00884203D001F58061884206D14168956991
:10476C0021F4802141EA852141604465D268C2650B
:10477C003EE0036A23F001030362036A4168846923
:10478C0023F00203156824F4803424F073042C43C2
:10479C0015692B43556823F001032B438E4DA8421A
:1047AC000FD005F58065A8420BD005F57055A842D1
:1047BC0007D005F58065A84203D005F58065A842B1
:1047CC0012D1556923F0080321F4807143EA850363
:1047DC00956823F0040343EA850395692943D56959
:1047EC0021F4007141EA450141608461D268426361
:1047FC000362002080E7036A23F010030362036A5C
:10480C004168846923F02003156824F0807424F433
:10481C00E64444EA0524156943EA0513556823F078
:10482C00100343EA05136C4DA8420FD005F58065C3
:10483C00A8420BD005F57055A84207D005F5806548
:10484C00A84203D005F58065A84213D1556923F021
:10485C00800321F4806143EA8513956823F04003BB
:10486C0043EA8513956941EA8501D56921F4006114
:10487C0041EAC50141608461D2688263B8E7036A8A
:10488C0023F480730362036A4168C46923F40073E0
:10489C00156824F4803424F073042C43156943EA1E
:1048AC000523556823F4807343EA05234A4DA84237
:1048BC000FD005F58065A8420BD005F57055A842C0
:1048CC0007D005F58065A84203D005F58065A842A0
:1048DC0013D1556923F4006321F4805143EA8523F5
:1048EC00956823F4806343EA8523956941EA0511B1
:1048FC00D56921F4005141EA45114160C461D26887
:10490C00C26375E7036A23F480530362036A446845
:10491C00C16923F40053156821F0807121F4E6413C
:10492C0041EA0521156943EA0533556823F48053A0
:10493C0043EA0533284DA8420FD005F58065A842FF
:10494C000BD005F57055A84207D005F58065A84237
:10495C0003D005F58065A84204D124F48044956900
:10496C0044EA85144460C161D268026440E7036A7A
:10497C0023F480330362036A416D146823F400331B
:10498C0021F4803121F070010C43116943EA014399
:10499C00516823F4803343EA01430F4988420FD016
:1049AC0001F5806188420BD001F57051884207D027
:1049BC0001F58061884203D001F58061884206D1FF
:1049CC004168956921F4803141EA052141604465D3
:1049DC00D268816D82650BE700000140002800F071
:1049EC008280424B9A6902F44042B2F5404F1BD18F
:1049FC003F4B404A0344934258D33F4A3F4B0244F7
:104A0C009A4266D33E4A02449A4264D33D4A0244D7
:104A1C009A4262D33C4A02449A4260D33B4A0244D3
:104A2C009A421ED2012042E09A6902F44042B2F549
:104A3C00004F1AD1364B374A0344934249D3364A76
:104A4C00364B02449A4246D9354A02449A4244D9DA
:104A5C00344A02449A4242D9334A02449A42E1D936
:104A6C00013398423FD8002021E09B6903F4404376
:104A7C00B3F5804F0FD12D4B2D4A034493422AD3CB
:104A8C002C4A2D4B02449A4227D92C4A02449A4272
:104A9C0025D92B4AE1E72B4A2B4B02449A421CD3D3
:104AAC001A4A02449A421AD3284AB8E70620284ADE
:104ABC00136823F00F0303431360136803F00F0311
:104ACC0098420ED0136803F00F03C01A18BF0120D0
:104ADC0070470520EBE70420E9E70320E7E7022015
:104AEC00E5E70346F1E70120704700BF0048025894
:104AFC00FFAD43F00024F400FF10E3F200639F02CB
:104B0C00FF7382F5FFD621F8FF39C1FAFF9C60FDD7
:104B1C007FA77BF3C0E1E400FF85FCF57FDE80021C
:104B2C007F647DF8FF42FEFA7F217FFDFFCDE4F725
:104B3C0000366E017F9AEBF97FCC0602FF66F2FB22
:104B4C007F33F9FD7FEB10FC80B14F017F4EB0FE3F
:104B5C000020005238B5044678B1FFF735FC054605
:104B6C0006480023064AA4FB0001FBF717FE044687
:104B7C00FFF72AFC431BA342FAD338BD0076B010D2
:104B8C0040420F0010B5044686B0FDF73FF9074BC5
:104B9C000593022304930648002304AA4FF4825180
:104BAC00FDF714FA204601F045FF00BFE57F000831
:104BBC00B07300082DE9F04387B004460D4600AFF2
:104BCC004FF01003EFF3118883F31288BFF36F8F4C
:104BDC0004282D4AE9468AB098BF2C4B9668117C64
:104BEC006A4694BF53F82030294BC2E9073140F292
:104BFC00013328489384284BC2E9050442F8103F3E
:104C0C0000234FF431512548FDF7E0F9CD467DB135
:104C1C00EB69C3F308035BB1214B7B6102233B615E
:104C2C00002307F110024FF482511C48FDF7CEF916
:104C3C002EB1304601F014FF08B1037803B91948BE
:104C4C00E9468AB06A46184BD061C2E9053640F293
:104C5C0001331384154B42F8103F00234FF41151CC
:104C6C000E48FDF7B3F929462046CD46FFF78AFFDB
:104C7C0088F31188BFF36F8F3046FEF73DF81C3771
:104C8C00BD46BDE8F08300BF4C080024C476000884
:104C9C00F47F00080A80000805000001B0730008CA
:104CAC0032800008028000085380000804000001D4
:104CBC00104B70B553F82040013053F82060A642D9
:104CCC0000D870BDD4E9003595B153B1284698474A
:104CDC0038B10028EB68B8BF4042FF28A8BFFF20BE
:104CEC001870EA68537843F0010353700834E6E710
:104CFC009847FBE7D87600080122032008B5094B3A
:104D0C001A70FFF7D5FF00F0DBFE0420FFF7D0FF91
:104D1C0000F030F9FBF7ACFE034A137B23F00103E0
:104D2C00137308BD810800243006002406480021B6
:104D3C00064A08B5121A01F086FE0548054A0021FC
:104D4C00121A01F080FE08BDE00000248408002443
:104D5C00000000200000002070B5002386B0012266
:104D6C001A4E019304461A4D06EBC0161949CDE9AB
:104D7C0004230F22CDE9023214234FF4A07203FB5B
:104D8C0000554FF4C070144B00FB041130460095D5
:104D9C0000F092F8737B114A23F00403EE602C743C
:104DAC0073734FF4046304FB033313446B60BFF35E
:104DBC005B8F0B4B53E8001F013143E80012002AB4
:104DCC00F8D1BFF35B8F06B070BD00BFB0050024F7
:104DDC004C08002440140024716A0008000C0024C4
:104DEC004808002480B50020A6B0FFF761FF2B4BCC
:104DFC0083F308882A4D0024F0232A4E2A4F85F885
:104E0C002230EC772C766C76AC7685F820406B6A89
:104E1C0043F4E0236B62FDF73BFFFEF761F84FF0C4
:104E2C00FF33AB62EB62FEF751F9204DFEF780F8D1
:104E3C00FCF75EFF40F201132294ADF8243006AB70
:104E4C00CDE91F44B36001F0E9FD0120FFF730FF0D
:104E5C000220FFF72DFF00F015FB154B75614FF489
:104E6C00806205930123134928460094CDE903433E
:104E7C00CDE901443B4600F01FF86A7B0646284604
:104E8C0022F004026A7301F03FFE2046FFF764FF34
:104E9C003A4631462846FEF70DF800BF4014002470
:104EAC0000ED00E04C080024054D000830060024FD
:104EBC00B5800008C01500242DE9FF410E9E00F1BD
:104ECC0058050F46044606730426403746730D9E5C
:104EDC008673D61D0C9A26F00706C0E916550025D8
:104EEC0006F1400885608844C573C566C0E906555F
:104EFC00C0E9197602920B9A01920A9A00924246E4
:104F0C00FDF7ACFF044B65659B6803B11B6F404616
:104F1C00236704B0BDE8F0814C080024F0B50025EF
:104F2C0087B004460595109D04950F9D03950E9D25
:104F3C0002950D9D01950C9DDDE912760095FFF70C
:104F4C00BBFFB6F1FF3F08BFB7F1FF3F05D056EAF4
:104F5C00070305D1204600F015FA204607B0F0BD36
:104F6C003A463346024904F1180000F00BFCF4E712
:104F7C009D6B000870B5214C86B0214D264630340F
:104F8C00AE420AD31D4C00F04DFA1E4EAC4220D35B
:104F9C0006B0BDE8704000F059BA54F80C3C0593CB
:104FAC0054F8103C049354F8143C039354F8183CF4
:104FBC00029354F81C3C019354F8203C009354E9A0
:104FCC000A2354E90C01FFF777FF54F8303C5E6577
:104FDC00D4E7D4E90A23B3F1FF3F08BFB2F1FF3F96
:104FEC0005D052EA0301206803D100F0CBF930342C
:104FFC00CCE73146183000F0C5FBF8E788730008A1
:10500C00887300089D6B000838B504464FF01003F8
:10501C00EFF3118583F31288BFF36F8F01F0D3FD8B
:10502C0048B10022826701F06FFD29460748BDE8B0
:10503C00384000F095B9D4E902329A4218BF0133D6
:10504C00A36085F31188BFF36F8F38BD82080024ED
:10505C0013B54FF01004EFF3118184F31288BFF3F2
:10506C006F8F846844B1013C846081F31188BFF375
:10507C006F8F002002B010BD52EA030406D181F3F9
:10508C001188BFF36F8F6FF00F00F3E7CDE90023AA
:10509C000246024800F046F9ECE700BF8208002403
:1050AC00C3897F2B12D80A4B1B6863B1094B90F94B
:1050BC000E201B689A4209DB437BDB0606D1064BAC
:1050CC00C31A18BF012303F0010070470023FAE74D
:1050DC007408002470080024B0050024044B01223D
:1050EC00C01A044BC0105843034B1A54704700BFEE
:1050FC00B0060024ABAAAAAA820800240E4B70B5F5
:10510C001E7C05460D4C06EB460304EBC3042046FF
:10511C0001F08BFD0A4B002228469A55FFF7C0FF81
:10512C0048B1084B204608491A68013ABDE870405E
:10513C00D31700F027BB70BD4C080024B006002428
:10514C008208002474080024E950000838B50D4D7D
:10515C002B4653F8184F9C4200D004B9EC68AB684E
:10516C0038B95A7BD20604D1A26912B9DA897F2ADE
:10517C0005D89C4202D02046FFF7C0FF23466B6146
:10518C0038BD00BF4C08002470B590F90D200146C5
:10519C00437B002A04DA03F07F03437301F07AFCAB
:1051AC004B7B154A63F07F0310464B7350F8183F46
:1051BC00D469834208BF002323B9C1E900042160EC
:1051CC00D1610CE091F90E5093F90E60B5420ED0FE
:1051DC00AE420CDD5868C1E900300160596090683E
:1051EC00431A5842BDE870405841FFF7AFBF9C428C
:1051FC00E3D01B68E0E700BF4C08002470B490F9C2
:10520C000D30427B002B29DBD30627D183692BBBC6
:10521C0062F07F02124942730A4652F8184F9442C8
:10522C0018BF2346CC6923B9C0E900242060C861AB
:10523C000CE090F90E5093F90E60B5420AD0AE42D4
:10524C0008DD5A68C0E9003210605860002070BC5C
:10525C00FFF77CBFA342E7D01B68E4E770BC704744
:10526C004C08002408B590F90D200146437B002A18
:10527C0004DA03F07F03437301F00CFC044B9868D1
:10528C00431A58425841BDE80840FFF75FBF00BFC2
:10529C004C08002470B515461C46064601F00CFC63
:1052AC00B4F1FF3F08BFB5F1FF3F08D02A462346B3
:1052BC0006F118000249BDE8704000F063BA70BDF9
:1052CC009D6B000838B54FF01003EFF3118583F395
:1052DC001288BFF36F8F104B104A9C681068A04265
:1052EC0006D1FFF70BFF85F31188BFF36F8F38BD25
:1052FC0000211B7C11600A4AD35C002BF3D02046A2
:10530C00FFF7CEFE0028EED0637BDB0602D12046F1
:10531C00FFF73AFF2046E4E74C0800246C08002411
:10532C00820800240C4870B50C4D0C46866811465A
:10533C002E60DDE904234FF01006EFF3118586F3A0
:10534C001288BFF36F8F8068FFF7A4FF2046BDE87B
:10535C007040FDF7E7BC00BF4C0800246C0800242B
:10536C0049B9EFF3058030B9054B5A699B689A42ED
:10537C0001D0FDF7D7BC81F31188BFF36F8F704755
:10538C004C08002410B54FF01002EFF3118482F397
:10539C001288BFF36F8F427B510704D484F31188BA
:1053AC00BFF36F8F10BD22F004024273FFF726FF8C
:1053BC0021460248BDE81040FFF7D2BF8308002405
:1053CC0070B50446183001F030FC4FF01003EFF3C9
:1053DC00118683F31288BFF36F8F94F90D20637BD2
:1053EC00002A05DA03F07F032046637301F052FBB9
:1053FC00637B0B4D43F01003A8686373031B584287
:10540C005841FFF7A3FE86F31188BFF36F8FAB688B
:10541C00A34203D1BDE8704001F0FDBB70BD00BFDD
:10542C004C0800244FF01003EFF3118183F3128822
:10543C00BFF36F8F044B9A68D37B013BD37381F31B
:10544C001188BFF36F8F70474C08002410B54FF0D4
:10545C001003EFF3118483F31288BFF36F8F084BA3
:10546C0000209A68D37B0133D373FFF76FFE84F36C
:10547C001188BFF36F8FBDE8104001F0CCBB00BFAB
:10548C004C080024024B03F11802C3E906227047B2
:10549C004C080024F8B54FF01003EFF3118583F39B
:1054AC001288BFF36F8F19498868437B03F07F0321
:1054BC00437301F0EFFA8B6808465A7B62F07F0267
:1054CC005A7350F8182FCC69824208BF002222B9B7
:1054DC00C3E900042360CB610CE093F90E6092F9F0
:1054EC000E70BE420ED0B7420CDD5168C3E90021EC
:1054FC000B6053600120FFF729FE2846BDE8F840F9
:10550C00FDF710BCA242E3D01268E0E74C0800247F
:10551C0050EA01032DE9F04105460E4603D1FFF791
:10552C00B9FF00202CE0831C71F1FF332ADB01F062
:10553C0092FB2C184FF01003EFF3118883F31288B1
:10554C00BFF36F8F114F124BB8681860FFF78AFECC
:10555C00B8682A460F493346183000F013F9BA6878
:10556C004046537B43F010035373FDF7DBFB01F014
:10557C0072FB201A63EB0303012873F10003D0DBE9
:10558C00BDE8F0816FF00104241AD3E74C08002425
:10559C006C0800249D6B0008B1F1FF3F08BFB0F10F
:1055AC00FF3F08B506D1074B9868FFF709FF4FF08E
:1055BC00FF3008BDFFF7ACFF0A220023C117FBF731
:1055CC00EDF8F6E74C080024014B9868704700BFD3
:1055DC004C0800242DE9F04104464FF01003EFF382
:1055EC00118683F31288BFF36F8F037BD9070BD51A
:1055FC0086F31188BFF36F8F404080F311884FF012
:10560C00040002DFBDE8F081437B1A0704D586F362
:10561C001188BFF36F8FF5E723F0200242F00801E9
:10562C00D20920D14173A36813B1204601F03AFA94
:10563C0004F158074FF0000804F1180001F0F5FAD6
:10564C00A56DBD4200D0B5B90120FFF77FFD104B11
:10565C009B68A342DBD1EFF30583002BD7D13046F7
:10566C00FDF760FBD3E703F05F0343F008034373DC
:10567C0001F010FAD7E7284601F014FA05F11800EA
:10568C0001F0D3FA2846C5F87880FFF7B7FDD7E7C5
:10569C004C0800240C480D4A0D49121A08B501F0AB
:1056AC00D4F90C4A0C490D4801F0CFF90C4A0D49BC
:1056BC000D4801F0CAF90D480D4A0E49121ABDE801
:1056CC00084001F0C2B900BF00000024DC00002437
:1056DC00EC80000800000000EC80000800000024B2
:1056EC0000000000C881000800000000000000203D
:1056FC0000000020C8810008034B1B680BB9FEF7A3
:10570C0045BE0020704700BF780800240E4B10B532
:10571C001C689C4204D1FFF7EFFF6FF0004010BDF6
:10572C00FFF7EAFF002CF8D0D4E904321B1A62EB25
:10573C00E072B3F1004F72F10001EEDA002AACBF57
:10574C0018460020EBE700BF4800002430B570B1CC
:10575C000B4B5B6898420AD0036843B1D3E9042130
:10576C00D0E90445121941EB0501C3E90421D0E944
:10577C00003213605A600023C0E9003330BD00BF13
:10578C0048000024B3F1FF3F08BFB2F1FF3FF8B56A
:10579C0004461D4616465CD081604FF01003EFF3B3
:1057AC00118783F31288BFF36F8F013275F1FF33CA
:1057BC0024DA2D496FF00103D1E900209B1A4FF038
:1057CC00FF3262EB00009E1B60EB0500012E70F1B6
:1057DC00000301DA01260020C4E90460234ED6F848
:1057EC0000C07568B44508BF4FF0000CBCF1000F49
:1057FC000DD1C4E900652C6074601CE0FFF77CFFE0
:10580C00013645F10005361845EBE070E4E7DCE9BC
:10581C000420D4E90431934271EB000E1ADAD21A47
:10582C00DCF8043060EB0100CCE90420C4E900C3CF
:10583C001C60CCF804403368B34206D09C4204D1BF
:10584C00FFF764FF0021FEF723FD87F31188BFF3F8
:10585C006F8FF8BD9B1A61EB0001AC45C4E90431B4
:10586C00C7D0DCF800C0C1E7C806002448000024FB
:10587C002DE9F84F4FF01003EFF3118C83F31288DE
:10588C00BFF36F8FDFF8B4A00024DFF8B4900025CD
:10589C002C4FC9F80000DAF80000504508BF002072
:1058AC00D9F80030E046D7E9002180B34FEAE37E17
:1058BC00D0E9046CB3427EEB0C0B05DAF61A6CEBF8
:1058CC000E04C0E9046422E0B21841EBE671C0E9B1
:1058DC000445C7E90021FFF739FF88F31188BFF3AE
:1058EC006F8F836898474FF01003EFF3118883F3A1
:1058FC001288BFF36F8FD9F80030C446DAF8000075
:10590C009B1B5045C9F80030CAD1D7E900219A1821
:10591C004FF0000441EBE373C9F80040C7E90023E2
:10592C00FFF7F4FE2146FEF7B3FC88F31188BFF3B2
:10593C006F8FBDE8F84FFFF7C5BC00BF48000024CF
:10594C0078080024C806002410B54FF01003EFF3BC
:10595C00118483F31288BFF36F8FFFF7CDFE064AD5
:10596C000346D2E90001181841EBE37184F3118866
:10597C00BFF36F8F10BD00BFC8060024F8B50446F6
:10598C004FF01003EFF3118783F31288BFF36F8F7F
:10599C00026822B187F31188BFF36F8FF8BDD0E98D
:1059AC000A36581C46F10001022871F1000127D378
:1059BC00012B76F10001BCBF012316465D1E46F19A
:1059CC00FF3601F04CF9013041F10001401946EB72
:1059DC000101012871F100013ADB01F040F90130BD
:1059EC006FF0010241F10001401946EB0103121A5C
:1059FC004FF0FF3161EB030318492046FFF7C2FE5D
:105A0C00236B01332363236A73B187F31188BFF3CC
:105A1C006F8F236A204698474FF01003EFF31187DE
:105A2C0083F31288BFF36F8F54F8185FA542B1D07F
:105A3C00002DAFD0284601F077F80023AB6787F331
:105A4C001188BFF36F8F2846BDE8F84001F05CB8B1
:105A5C006FF001024FF0FF33CEE700BF8959000809
:105A6C00B3F1FF3F08BFB2F1FF3F2DE9F047DDE98D
:105A7C00086705461C46914698461CD0531C74F189
:105A8C00FF3309DB012A74F10003BCBF012200249F
:105A9C0012F1FF3944F1FF38284601F0C6F8002313
:105AAC004A4628462B6343460449C5E90A67BDE8C4
:105ABC00F047FFF767BEBDE8F08700BF89590008C3
:105ACC00014800F09DB800BFBD8000087047034638
:105ADC000A4600681979012303FA01F103691B686E
:105AEC00194218BF82F0010212B18368DB681847B3
:105AFC0083681B69FBE70346F0B419790068DB88FF
:105B0C00DA0706694FF00105876854BF43F4B013F8
:105B1C0083F4D01334688D4023F48012DB074CBF20
:105B2C002C43AC4334603B68F0BC18472DE9F0477C
:105B3C0006460D46174698462BB398F800404FF092
:105B4C00000A93F80190A400DB7804EB430498F866
:105B5C0002301C444444CA4509D308F10803D8F860
:105B6C00042039463046AC46BDE8F047604714F88F
:105B7C00013B0AF1010A204648F8234000F0F1FBF2
:105B8C0001300444E7E76FF01500BDE8F08770B50D
:105B9C00002502462846144614F8013B0BB918465A
:105BAC0009E098B18D4207D1702B04D0A3F14002CB
:105BBC003A2A0BD8002070BDA3F140063A2E05D826
:105BCC0053780135941C002BE9D00020252B22465C
:105BDC0008BF80F00100DEE70020704730B58A680E
:105BEC000C68551C14B14B68934201DC8D6030BDC0
:105BFC00013B8D6093420ABF0022A054E254F6E7A9
:105C0C000FB407B504A951F8040B019100F0FAFA8E
:105C1C0003B05DF804EB04B070470CB407B504ABEB
:105C2C0053F8042B0193FBF707FB03B05DF804EB6F
:105C3C0002B070470446084611461A4608B5A047FC
:105C4C00FFF7C2FCFDF758F82DE9F84F9A46D378C8
:105C5C0080460F466F2B1546A3F1410B29D024D853
:105C6C00582B0CBF10260A26DDF82890324600234C
:105C7C0040463946FAF792FD092AD4B21ED8303480
:105C8C00B045E4B277F1000709F8014D01D3D145D5
:105C9C0011D82B789B0605D5082E15D1AB7843F07F
:105CAC000803AB704846BDE8F88F03F0F703702B80
:105CBC00D7E70826D8E780460F46D7E7BBF1190F80
:105CCC0094BF37345734DBE7102EEBD1AB7843F06D
:105CDC001003E6E72DE9F0410746884615461E46B7
:105CEC001446B44205D30EB1601B08E02378002B98
:105CFC00FAD0414614F8010BB8470028F1DABDE898
